{
  "_format": "hh-sol-artifact-1",
  "contractName": "WorkQuest",
  "sourceName": "contracts/WorkQuest.sol",
  "abi": [
    {
      "inputs": [
        {
          "internalType": "bytes32",
          "name": "_jobHash",
          "type": "bytes32"
        },
        {
          "internalType": "uint256",
          "name": "_fee",
          "type": "uint256"
        },
        {
          "internalType": "uint256",
          "name": "_cost",
          "type": "uint256"
        },
        {
          "internalType": "uint256",
          "name": "_deadline",
          "type": "uint256"
        },
        {
          "internalType": "address payable",
          "name": "_feeReceiver",
          "type": "address"
        },
        {
          "internalType": "address payable",
          "name": "_pensionFund",
          "type": "address"
        },
        {
          "internalType": "address payable",
          "name": "_employer",
          "type": "address"
        },
        {
          "internalType": "address payable",
          "name": "_arbiter",
          "type": "address"
        },
        {
          "internalType": "address payable",
          "name": "_referal",
          "type": "address"
        }
      ],
      "stateMutability": "nonpayable",
      "type": "constructor"
    },
    {
      "anonymous": false,
      "inputs": [],
      "name": "ArbitrationAcceptWork",
      "type": "event"
    },
    {
      "anonymous": false,
      "inputs": [],
      "name": "ArbitrationDecreaseCost",
      "type": "event"
    },
    {
      "anonymous": false,
      "inputs": [],
      "name": "ArbitrationRejectWork",
      "type": "event"
    },
    {
      "anonymous": false,
      "inputs": [],
      "name": "ArbitrationRework",
      "type": "event"
    },
    {
      "anonymous": false,
      "inputs": [],
      "name": "ArbitrationStarted",
      "type": "event"
    },
    {
      "anonymous": false,
      "inputs": [
        {
          "indexed": false,
          "internalType": "address",
          "name": "worker",
          "type": "address"
        }
      ],
      "name": "Assigned",
      "type": "event"
    },
    {
      "anonymous": false,
      "inputs": [],
      "name": "JobAccepted",
      "type": "event"
    },
    {
      "anonymous": false,
      "inputs": [],
      "name": "JobCancelled",
      "type": "event"
    },
    {
      "anonymous": false,
      "inputs": [],
      "name": "JobDeclined",
      "type": "event"
    },
    {
      "anonymous": false,
      "inputs": [],
      "name": "JobDone",
      "type": "event"
    },
    {
      "anonymous": false,
      "inputs": [
        {
          "indexed": false,
          "internalType": "bytes32",
          "name": "jobHash",
          "type": "bytes32"
        },
        {
          "indexed": false,
          "internalType": "uint256",
          "name": "cost",
          "type": "uint256"
        }
      ],
      "name": "JobEdited",
      "type": "event"
    },
    {
      "anonymous": false,
      "inputs": [],
      "name": "JobFinished",
      "type": "event"
    },
    {
      "anonymous": false,
      "inputs": [],
      "name": "JobStarted",
      "type": "event"
    },
    {
      "anonymous": false,
      "inputs": [
        {
          "indexed": false,
          "internalType": "address",
          "name": "sender",
          "type": "address"
        },
        {
          "indexed": false,
          "internalType": "uint256",
          "name": "amount",
          "type": "uint256"
        }
      ],
      "name": "Received",
      "type": "event"
    },
    {
      "anonymous": false,
      "inputs": [
        {
          "indexed": false,
          "internalType": "bytes32",
          "name": "jobHash",
          "type": "bytes32"
        }
      ],
      "name": "WorkQuestCreated",
      "type": "event"
    },
    {
      "inputs": [],
      "name": "acceptJob",
      "outputs": [],
      "stateMutability": "nonpayable",
      "type": "function"
    },
    {
      "inputs": [],
      "name": "acceptJobResult",
      "outputs": [],
      "stateMutability": "nonpayable",
      "type": "function"
    },
    {
      "inputs": [],
      "name": "arbiter",
      "outputs": [
        {
          "internalType": "address payable",
          "name": "",
          "type": "address"
        }
      ],
      "stateMutability": "view",
      "type": "function"
    },
    {
      "inputs": [],
      "name": "arbitration",
      "outputs": [],
      "stateMutability": "nonpayable",
      "type": "function"
    },
    {
      "inputs": [],
      "name": "arbitrationAcceptWork",
      "outputs": [],
      "stateMutability": "nonpayable",
      "type": "function"
    },
    {
      "inputs": [
        {
          "internalType": "uint256",
          "name": "_forfeit",
          "type": "uint256"
        }
      ],
      "name": "arbitrationDecreaseCost",
      "outputs": [],
      "stateMutability": "nonpayable",
      "type": "function"
    },
    {
      "inputs": [],
      "name": "arbitrationRejectWork",
      "outputs": [],
      "stateMutability": "nonpayable",
      "type": "function"
    },
    {
      "inputs": [],
      "name": "arbitrationRework",
      "outputs": [],
      "stateMutability": "nonpayable",
      "type": "function"
    },
    {
      "inputs": [
        {
          "internalType": "address payable",
          "name": "_worker",
          "type": "address"
        }
      ],
      "name": "assignJob",
      "outputs": [],
      "stateMutability": "nonpayable",
      "type": "function"
    },
    {
      "inputs": [],
      "name": "cancelJob",
      "outputs": [],
      "stateMutability": "nonpayable",
      "type": "function"
    },
    {
      "inputs": [],
      "name": "cost",
      "outputs": [
        {
          "internalType": "uint256",
          "name": "",
          "type": "uint256"
        }
      ],
      "stateMutability": "view",
      "type": "function"
    },
    {
      "inputs": [],
      "name": "deadline",
      "outputs": [
        {
          "internalType": "uint256",
          "name": "",
          "type": "uint256"
        }
      ],
      "stateMutability": "view",
      "type": "function"
    },
    {
      "inputs": [],
      "name": "declineJob",
      "outputs": [],
      "stateMutability": "nonpayable",
      "type": "function"
    },
    {
      "inputs": [
        {
          "internalType": "bytes32",
          "name": "_jobHash",
          "type": "bytes32"
        },
        {
          "internalType": "uint256",
          "name": "_cost",
          "type": "uint256"
        }
      ],
      "name": "editJob",
      "outputs": [],
      "stateMutability": "nonpayable",
      "type": "function"
    },
    {
      "inputs": [],
      "name": "employer",
      "outputs": [
        {
          "internalType": "address payable",
          "name": "",
          "type": "address"
        }
      ],
      "stateMutability": "view",
      "type": "function"
    },
    {
      "inputs": [],
      "name": "fee",
      "outputs": [
        {
          "internalType": "uint256",
          "name": "",
          "type": "uint256"
        }
      ],
      "stateMutability": "view",
      "type": "function"
    },
    {
      "inputs": [],
      "name": "feeReceiver",
      "outputs": [
        {
          "internalType": "address payable",
          "name": "",
          "type": "address"
        }
      ],
      "stateMutability": "view",
      "type": "function"
    },
    {
      "inputs": [],
      "name": "forfeit",
      "outputs": [
        {
          "internalType": "uint256",
          "name": "",
          "type": "uint256"
        }
      ],
      "stateMutability": "view",
      "type": "function"
    },
    {
      "inputs": [],
      "name": "getInfo",
      "outputs": [
        {
          "internalType": "bytes32",
          "name": "_jobHash",
          "type": "bytes32"
        },
        {
          "internalType": "uint256",
          "name": "_cost",
          "type": "uint256"
        },
        {
          "internalType": "uint256",
          "name": "_forfeit",
          "type": "uint256"
        },
        {
          "internalType": "address",
          "name": "_employer",
          "type": "address"
        },
        {
          "internalType": "address",
          "name": "_worker",
          "type": "address"
        },
        {
          "internalType": "address",
          "name": "_arbiter",
          "type": "address"
        },
        {
          "internalType": "enum WorkQuest.JobStatus",
          "name": "_status",
          "type": "uint8"
        },
        {
          "internalType": "uint256",
          "name": "_deadline",
          "type": "uint256"
        }
      ],
      "stateMutability": "view",
      "type": "function"
    },
    {
      "inputs": [],
      "name": "jobHash",
      "outputs": [
        {
          "internalType": "bytes32",
          "name": "",
          "type": "bytes32"
        }
      ],
      "stateMutability": "view",
      "type": "function"
    },
    {
      "inputs": [],
      "name": "pensionFund",
      "outputs": [
        {
          "internalType": "address payable",
          "name": "",
          "type": "address"
        }
      ],
      "stateMutability": "view",
      "type": "function"
    },
    {
      "inputs": [],
      "name": "processJob",
      "outputs": [],
      "stateMutability": "nonpayable",
      "type": "function"
    },
    {
      "inputs": [],
      "name": "referal",
      "outputs": [
        {
          "internalType": "address payable",
          "name": "",
          "type": "address"
        }
      ],
      "stateMutability": "view",
      "type": "function"
    },
    {
      "inputs": [],
      "name": "status",
      "outputs": [
        {
          "internalType": "enum WorkQuest.JobStatus",
          "name": "",
          "type": "uint8"
        }
      ],
      "stateMutability": "view",
      "type": "function"
    },
    {
      "inputs": [],
      "name": "timeDone",
      "outputs": [
        {
          "internalType": "uint256",
          "name": "",
          "type": "uint256"
        }
      ],
      "stateMutability": "view",
      "type": "function"
    },
    {
      "inputs": [],
      "name": "verificationJob",
      "outputs": [],
      "stateMutability": "nonpayable",
      "type": "function"
    },
    {
      "inputs": [],
      "name": "worker",
      "outputs": [
        {
          "internalType": "address payable",
          "name": "",
          "type": "address"
        }
      ],
      "stateMutability": "view",
      "type": "function"
    },
    {
      "stateMutability": "payable",
      "type": "receive"
    }
  ],
  "bytecode": "0x60c06040523480156200001157600080fd5b5060405162001a4738038062001a47833981016040819052620000349162000106565b6004899055600088905560058790556008869055600180546001600160a01b038088166001600160a01b0319928316179092556002805487841690831617905560038054928616929091169190911790556001600160601b0319606083811b821660805282901b1660a0526040517f1f3edb4d58a0796934b2fca1e84cec8a42269dc76c56c22b4489a77205ed6bcf90620000d2908b815260200190565b60405180910390a15050505050505050506200019c565b80516001600160a01b03811681146200010157600080fd5b919050565b60008060008060008060008060006101208a8c03121562000125578485fd5b8951985060208a0151975060408a0151965060608a015195506200014c60808b01620000e9565b94506200015c60a08b01620000e9565b93506200016c60c08b01620000e9565b92506200017c60e08b01620000e9565b91506200018d6101008b01620000e9565b90509295985092959850929598565b60805160601c60a05160601c61184e620001f9600039600081816103c9015281816114d0015261156c01526000818161045b0152818161061d01528181610bf001528181610cd901528181610f790152611119015261184e6000f3fe6080604052600436106101a05760003560e01c8063a758757d116100ec578063d295ef5c1161008a578063f3d86e4a11610064578063f3d86e4a146105ca578063f409abcb146105e0578063f6faa747146105f5578063fe25e00a1461060b57600080fd5b8063d295ef5c1461057f578063d5c4034e14610594578063ddca3f43146105b457600080fd5b8063b07c7475116100c6578063b07c747514610520578063b3f0067414610535578063be72052414610555578063c72331fe1461056a57600080fd5b8063a758757d146104d6578063a77945b4146104eb578063ae200e791461050057600080fd5b80632eb81e1c116101595780635a9b0b89116101335780635a9b0b8914610420578063897399ae1461048c5780639b732350146104ac5780639b789b7e146104c157600080fd5b80632eb81e1c146103b75780634d547ada146103eb5780635a4777771461040b57600080fd5b8063021a0b7d146102da57806313faede6146103035780631776b75614610319578063200d2ed21461033b57806329dcb0cf146103695780632cba90c71461037f57600080fd5b366102d5576000670de0b6b3a76400006000546005546101c091906117a2565b6101ca9190611782565b9050806005546101da919061176a565b34101561022e5760405162461bcd60e51b815260206004820152601e60248201527f576f726b51756573743a20496e73756666696369656e7420616d6f756e74000060448201526064015b60405180910390fd5b6007805460ff60a01b1916600160a01b17905560055461024f90829061176a565b34111561028457610284816005543461026891906117c1565b61027291906117c1565b6003546001600160a01b03169061063f565b60015461029a906001600160a01b03168261063f565b604080513381523460208201527f88a5966d370b9919b20f3e2c13ff65706f196a4e32cc2c12bf57088f88525874910160405180910390a150005b600080fd5b3480156102e657600080fd5b506102f060095481565b6040519081526020015b60405180910390f35b34801561030f57600080fd5b506102f060055481565b34801561032557600080fd5b5061033961033436600461163b565b61075d565b005b34801561034757600080fd5b5060075461035c90600160a01b900460ff1681565b6040516102fa9190611703565b34801561037557600080fd5b506102f060085481565b34801561038b57600080fd5b5060025461039f906001600160a01b031681565b6040516001600160a01b0390911681526020016102fa565b3480156103c357600080fd5b5061039f7f000000000000000000000000000000000000000000000000000000000000000081565b3480156103f757600080fd5b5060075461039f906001600160a01b031681565b34801561041757600080fd5b50610339610821565b34801561042c57600080fd5b506004546005546006546003546007546008546040516102fa969594936001600160a01b0390811693908116927f000000000000000000000000000000000000000000000000000000000000000092600160a01b90920460ff16916116ae565b34801561049857600080fd5b506103396104a73660046115ed565b6108dc565b3480156104b857600080fd5b50610339610a0a565b3480156104cd57600080fd5b50610339610b2a565b3480156104e257600080fd5b50610339610be5565b3480156104f757600080fd5b50610339610cce565b34801561050c57600080fd5b5060035461039f906001600160a01b031681565b34801561052c57600080fd5b50610339610df5565b34801561054157600080fd5b5060015461039f906001600160a01b031681565b34801561056157600080fd5b50610339610eb0565b34801561057657600080fd5b50610339610f6e565b34801561058b57600080fd5b5061033961104f565b3480156105a057600080fd5b506103396105af36600461165c565b61110e565b3480156105c057600080fd5b506102f060005481565b3480156105d657600080fd5b506102f060065481565b3480156105ec57600080fd5b50610339611262565b34801561060157600080fd5b506102f060045481565b34801561061757600080fd5b5061039f7f000000000000000000000000000000000000000000000000000000000000000081565b8047101561068f5760405162461bcd60e51b815260206004820152601d60248201527f416464726573733a20696e73756666696369656e742062616c616e63650000006044820152606401610225565b6000826001600160a01b03168260405160006040518083038185875af1925050503d80600081146106dc576040519150601f19603f3d011682016040523d82523d6000602084013e6106e1565b606091505b50509050806107585760405162461bcd60e51b815260206004820152603a60248201527f416464726573733a20756e61626c6520746f2073656e642076616c75652c207260448201527f6563697069656e74206d617920686176652072657665727465640000000000006064820152608401610225565b505050565b600160078054600160a01b900460ff169081111561078b57634e487b7160e01b600052602160045260246000fd5b1480156107a257506003546001600160a01b031633145b6040518060600160405280602a81526020016117ef602a9139906107d95760405162461bcd60e51b81526004016102259190611717565b506004829055600581905560408051838152602081018390527f99c1b6b4fbf4ca9b81e8d02685672ce9c005abc4f4cda8dbbdd42b8d7862527c910160405180910390a15050565b6007546001600160a01b0316331480156108665750600360078054600160a01b900460ff169081111561086457634e487b7160e01b600052602160045260246000fd5b145b6040518060600160405280602a81526020016117ef602a91399061089d5760405162461bcd60e51b81526004016102259190611717565b506007805460ff60a01b1916600160a21b1790556040517f09c75d41aa3ec09c07382b19acbb564b6194701c275a1e84c265b13c096bddc690600090a1565b6003546001600160a01b0316331480156109215750600160078054600160a01b900460ff169081111561091f57634e487b7160e01b600052602160045260246000fd5b145b6040518060600160405280602a81526020016117ef602a9139906109585760405162461bcd60e51b81526004016102259190611717565b506001600160a01b0381166109af5760405162461bcd60e51b815260206004820152601a60248201527f576f726b51756573743a20496e76616c696420616464726573730000000000006044820152606401610225565b600780546001600160a01b0383166001600160a81b03199091168117600160a11b179091556040519081527f3c8974307e4abad0239998f9dc76add6b783cd52bf1337e9871763ce00f0e94b9060200160405180910390a150565b6003546001600160a01b031633148015610a4f5750600560078054600160a01b900460ff1690811115610a4d57634e487b7160e01b600052602160045260246000fd5b145b80610ab457506007546001600160a01b031633148015610a9a5750600560078054600160a01b900460ff1690811115610a9857634e487b7160e01b600052602160045260246000fd5b145b8015610ab45750600954610ab1906203f48061176a565b42115b6040518060600160405280602a81526020016117ef602a913990610aeb5760405162461bcd60e51b81526004016102259190611717565b506007805460ff60a01b1916600360a11b1790556040517f131074782b6ce325b67d3adcf196c9460c96c7006cc8b0db5f06168497d6aeea90600090a1565b6007546001600160a01b031633148015610b6f5750600260078054600160a01b900460ff1690811115610b6d57634e487b7160e01b600052602160045260246000fd5b145b6040518060600160405280602a81526020016117ef602a913990610ba65760405162461bcd60e51b81526004016102259190611717565b506007805460ff60a01b1916600360a01b1790556040517fbb4dc7231e372d3045e445d0edfcdbfd6fbabb267fd42c35dbda9e01bd8bc95590600090a1565b336001600160a01b037f000000000000000000000000000000000000000000000000000000000000000016148015610c485750600660078054600160a01b900460ff1690811115610c4657634e487b7160e01b600052602160045260246000fd5b145b6040518060600160405280602a81526020016117ef602a913990610c7f5760405162461bcd60e51b81526004016102259190611717565b50610c8d426203f48061176a565b6008556007805460ff60a01b1916600160a21b1790556040517f449b7a58002dc78283b0936b451b2258380908c80a671d05cbfc6d5d73e7e84890600090a1565b336001600160a01b037f000000000000000000000000000000000000000000000000000000000000000016148015610d315750600660078054600160a01b900460ff1690811115610d2f57634e487b7160e01b600052602160045260246000fd5b145b6040518060600160405280602a81526020016117ef602a913990610d685760405162461bcd60e51b81526004016102259190611717565b506007805460ff60a01b1916600760a01b17905560008054600554670de0b6b3a764000091610d96916117a2565b610da09190611782565b9050610db38160055461027291906117c1565b600154610dc9906001600160a01b03168261063f565b6040517f517141fd66568d7da9d3afa22dbb1526b725c23ac9cf2d87afcdda39f43d244690600090a150565b600160078054600160a01b900460ff1690811115610e2357634e487b7160e01b600052602160045260246000fd5b148015610e3a57506003546001600160a01b031633145b6040518060600160405280602a81526020016117ef602a913990610e715760405162461bcd60e51b81526004016102259190611717565b506007805460ff60a01b1916600760a01b1790556040517f1a7b868a3587950cf797c54b284b8c24e1ed007035e305719a6cbdd34b0ea1a890600090a1565b6007546001600160a01b031633148015610ef55750600260078054600160a01b900460ff1690811115610ef357634e487b7160e01b600052602160045260246000fd5b145b6040518060600160405280602a81526020016117ef602a913990610f2c5760405162461bcd60e51b81526004016102259190611717565b50600780546001600160a81b031916600160a01b1790556040517fbb5ffab343ed4caa081410d144b5a3ce6b60f32914c0ed3630624d09f980adfb90600090a1565b336001600160a01b037f000000000000000000000000000000000000000000000000000000000000000016148015610fd15750600660078054600160a01b900460ff1690811115610fcf57634e487b7160e01b600052602160045260246000fd5b145b6040518060600160405280602a81526020016117ef602a9139906110085760405162461bcd60e51b81526004016102259190611717565b506007805460ff60a01b1916600760a01b179055611024611325565b6040517fd3690046db46e1a0fc4d2e65f824e35d9171c12fd0aabab5d3d76841e1d8b1f790600090a1565b6007546001600160a01b0316331480156110945750600460078054600160a01b900460ff169081111561109257634e487b7160e01b600052602160045260246000fd5b145b6040518060600160405280602a81526020016117ef602a9139906110cb5760405162461bcd60e51b81526004016102259190611717565b506007805460ff60a01b1916600560a01b179055426009556040517f3c350d18e479f5682191b9cdb4cdfa755c912f69d2d5ab94d910df38dec36a7290600090a1565b336001600160a01b037f0000000000000000000000000000000000000000000000000000000000000000161480156111715750600660078054600160a01b900460ff169081111561116f57634e487b7160e01b600052602160045260246000fd5b145b6040518060600160405280602a81526020016117ef602a9139906111a85760405162461bcd60e51b81526004016102259190611717565b506005548111156112165760405162461bcd60e51b815260206004820152603260248201527f576f726b51756573743a20666f7266656974206d757374206265206c65617374604482015271081bdc88195c5d585b081a9bd88818dbdcdd60721b6064820152608401610225565b6007805460ff60a01b1916600760a01b1790556006819055611236611325565b6040517f520a8af2b3599291fb6be141ac83424cf1e51e71ca7fc767716248ae66c6aa5c90600090a150565b6003546001600160a01b0316331480156112a75750600560078054600160a01b900460ff16908111156112a557634e487b7160e01b600052602160045260246000fd5b145b6040518060600160405280602a81526020016117ef602a9139906112de5760405162461bcd60e51b81526004016102259190611717565b506007805460ff60a01b1916600760a01b1790556112fa611325565b6040517ffe17fb508799412c4bf2b124b8292bcc9ca4ff8ab8ec830110fbcb1ae5cb312590600090a1565b600060065460055461133791906117c1565b90506000670de0b6b3a76400006000548361135291906117a2565b61135c9190611782565b600254600754604051631711922960e31b81526001600160a01b03918216600482015292935060009291169063b88c91489060240160206040518083038186803b1580156113a957600080fd5b505afa1580156113bd573d6000803e3d6000fd5b505050506040513d601f19601f820116820180604052508101906113e19190611674565b90506000670de0b6b3a76400006113f883866117a2565b6114029190611782565b905061142e8161141285876117c1565b61141c91906117c1565b6007546001600160a01b03169061063f565b8115611498576002546007546040516373e888fd60e01b81526001600160a01b0391821660048201529116906373e888fd9083906024016000604051808303818588803b15801561147e57600080fd5b505af1158015611492573d6000803e3d6000fd5b50505050505b600654156114bb576006546003546114bb916001600160a01b039091169061063f565b60405163d72733c960e01b81523360048201527f00000000000000000000000000000000000000000000000000000000000000006001600160a01b03169063d72733c99060240160206040518083038186803b15801561151a57600080fd5b505afa15801561152e573d6000803e3d6000fd5b505050506040513d601f19601f82011682018060405250810190611552919061161b565b156115d15760405163d33e81a160e01b81523360048201527f00000000000000000000000000000000000000000000000000000000000000006001600160a01b03169063d33e81a190602401600060405180830381600087803b1580156115b857600080fd5b505af11580156115cc573d6000803e3d6000fd5b505050505b6001546115e7906001600160a01b03168461063f565b50505050565b6000602082840312156115fe578081fd5b81356001600160a01b0381168114611614578182fd5b9392505050565b60006020828403121561162c578081fd5b81518015158114611614578182fd5b6000806040838503121561164d578081fd5b50508035926020909101359150565b60006020828403121561166d578081fd5b5035919050565b600060208284031215611685578081fd5b5051919050565b600881106116aa57634e487b7160e01b600052602160045260246000fd5b9052565b88815260208101889052604081018790526001600160a01b0386811660608301528581166080830152841660a082015261010081016116f060c083018561168c565b8260e08301529998505050505050505050565b60208101611711828461168c565b92915050565b6000602080835283518082850152825b8181101561174357858101830151858201604001528201611727565b818111156117545783604083870101525b50601f01601f1916929092016040019392505050565b6000821982111561177d5761177d6117d8565b500190565b60008261179d57634e487b7160e01b81526012600452602481fd5b500490565b60008160001904831182151516156117bc576117bc6117d8565b500290565b6000828210156117d3576117d36117d8565b500390565b634e487b7160e01b600052601160045260246000fdfe576f726b51756573743a204163636573732064656e696564206f7220696e76616c696420737461747573a2646970667358221220e156e082702f4c60d4d7aa63077e42c98a183016aa27b1adcc1f9f80aef1d27b64736f6c63430008040033",
  "linkReferences": {},
  "deployedLinkReferences": {}
}