{
  "_format": "hh-sol-artifact-1",
  "contractName": "WQToken",
  "sourceName": "contracts/WQToken.sol",
  "abi": [
    {
      "inputs": [],
      "stateMutability": "nonpayable",
      "type": "constructor"
    },
    {
      "anonymous": false,
      "inputs": [
        {
          "indexed": false,
          "internalType": "address",
          "name": "previousAdmin",
          "type": "address"
        },
        {
          "indexed": false,
          "internalType": "address",
          "name": "newAdmin",
          "type": "address"
        }
      ],
      "name": "AdminChanged",
      "type": "event"
    },
    {
      "anonymous": false,
      "inputs": [
        {
          "indexed": true,
          "internalType": "address",
          "name": "owner",
          "type": "address"
        },
        {
          "indexed": true,
          "internalType": "address",
          "name": "spender",
          "type": "address"
        },
        {
          "indexed": false,
          "internalType": "uint256",
          "name": "value",
          "type": "uint256"
        }
      ],
      "name": "Approval",
      "type": "event"
    },
    {
      "anonymous": false,
      "inputs": [
        {
          "indexed": true,
          "internalType": "address",
          "name": "beacon",
          "type": "address"
        }
      ],
      "name": "BeaconUpgraded",
      "type": "event"
    },
    {
      "anonymous": false,
      "inputs": [
        {
          "indexed": true,
          "internalType": "address",
          "name": "delegator",
          "type": "address"
        },
        {
          "indexed": true,
          "internalType": "address",
          "name": "fromDelegate",
          "type": "address"
        },
        {
          "indexed": true,
          "internalType": "address",
          "name": "toDelegate",
          "type": "address"
        }
      ],
      "name": "DelegateChanged",
      "type": "event"
    },
    {
      "anonymous": false,
      "inputs": [
        {
          "indexed": true,
          "internalType": "address",
          "name": "delegator",
          "type": "address"
        },
        {
          "indexed": true,
          "internalType": "address",
          "name": "delegatee",
          "type": "address"
        },
        {
          "indexed": false,
          "internalType": "uint256",
          "name": "previousBalance",
          "type": "uint256"
        },
        {
          "indexed": false,
          "internalType": "uint256",
          "name": "newBalance",
          "type": "uint256"
        }
      ],
      "name": "DelegateVotesChanged",
      "type": "event"
    },
    {
      "anonymous": false,
      "inputs": [
        {
          "indexed": true,
          "internalType": "bytes32",
          "name": "role",
          "type": "bytes32"
        },
        {
          "indexed": true,
          "internalType": "bytes32",
          "name": "previousAdminRole",
          "type": "bytes32"
        },
        {
          "indexed": true,
          "internalType": "bytes32",
          "name": "newAdminRole",
          "type": "bytes32"
        }
      ],
      "name": "RoleAdminChanged",
      "type": "event"
    },
    {
      "anonymous": false,
      "inputs": [
        {
          "indexed": true,
          "internalType": "bytes32",
          "name": "role",
          "type": "bytes32"
        },
        {
          "indexed": true,
          "internalType": "address",
          "name": "account",
          "type": "address"
        },
        {
          "indexed": true,
          "internalType": "address",
          "name": "sender",
          "type": "address"
        }
      ],
      "name": "RoleGranted",
      "type": "event"
    },
    {
      "anonymous": false,
      "inputs": [
        {
          "indexed": true,
          "internalType": "bytes32",
          "name": "role",
          "type": "bytes32"
        },
        {
          "indexed": true,
          "internalType": "address",
          "name": "account",
          "type": "address"
        },
        {
          "indexed": true,
          "internalType": "address",
          "name": "sender",
          "type": "address"
        }
      ],
      "name": "RoleRevoked",
      "type": "event"
    },
    {
      "anonymous": false,
      "inputs": [
        {
          "indexed": true,
          "internalType": "address",
          "name": "from",
          "type": "address"
        },
        {
          "indexed": true,
          "internalType": "address",
          "name": "to",
          "type": "address"
        },
        {
          "indexed": false,
          "internalType": "uint256",
          "name": "value",
          "type": "uint256"
        }
      ],
      "name": "Transfer",
      "type": "event"
    },
    {
      "anonymous": false,
      "inputs": [
        {
          "indexed": true,
          "internalType": "address",
          "name": "implementation",
          "type": "address"
        }
      ],
      "name": "Upgraded",
      "type": "event"
    },
    {
      "inputs": [],
      "name": "ADMIN_ROLE",
      "outputs": [
        {
          "internalType": "bytes32",
          "name": "",
          "type": "bytes32"
        }
      ],
      "stateMutability": "view",
      "type": "function"
    },
    {
      "inputs": [],
      "name": "BURNER_ROLE",
      "outputs": [
        {
          "internalType": "bytes32",
          "name": "",
          "type": "bytes32"
        }
      ],
      "stateMutability": "view",
      "type": "function"
    },
    {
      "inputs": [],
      "name": "DEFAULT_ADMIN_ROLE",
      "outputs": [
        {
          "internalType": "bytes32",
          "name": "",
          "type": "bytes32"
        }
      ],
      "stateMutability": "view",
      "type": "function"
    },
    {
      "inputs": [],
      "name": "MINTER_ROLE",
      "outputs": [
        {
          "internalType": "bytes32",
          "name": "",
          "type": "bytes32"
        }
      ],
      "stateMutability": "view",
      "type": "function"
    },
    {
      "inputs": [],
      "name": "UPGRADER_ROLE",
      "outputs": [
        {
          "internalType": "bytes32",
          "name": "",
          "type": "bytes32"
        }
      ],
      "stateMutability": "view",
      "type": "function"
    },
    {
      "inputs": [
        {
          "internalType": "address",
          "name": "account",
          "type": "address"
        },
        {
          "internalType": "address",
          "name": "spender",
          "type": "address"
        }
      ],
      "name": "allowance",
      "outputs": [
        {
          "internalType": "uint256",
          "name": "",
          "type": "uint256"
        }
      ],
      "stateMutability": "view",
      "type": "function"
    },
    {
      "inputs": [
        {
          "internalType": "address",
          "name": "account",
          "type": "address"
        },
        {
          "internalType": "uint256",
          "name": "amount",
          "type": "uint256"
        }
      ],
      "name": "approve",
      "outputs": [
        {
          "internalType": "bool",
          "name": "",
          "type": "bool"
        }
      ],
      "stateMutability": "nonpayable",
      "type": "function"
    },
    {
      "inputs": [
        {
          "internalType": "address",
          "name": "account",
          "type": "address"
        }
      ],
      "name": "balanceOf",
      "outputs": [
        {
          "internalType": "uint256",
          "name": "",
          "type": "uint256"
        }
      ],
      "stateMutability": "view",
      "type": "function"
    },
    {
      "inputs": [
        {
          "internalType": "address",
          "name": "account",
          "type": "address"
        },
        {
          "internalType": "uint256",
          "name": "amount",
          "type": "uint256"
        }
      ],
      "name": "burn",
      "outputs": [],
      "stateMutability": "nonpayable",
      "type": "function"
    },
    {
      "inputs": [
        {
          "internalType": "address",
          "name": "account",
          "type": "address"
        },
        {
          "internalType": "uint32",
          "name": "pos",
          "type": "uint32"
        }
      ],
      "name": "checkpoints",
      "outputs": [
        {
          "components": [
            {
              "internalType": "uint32",
              "name": "fromBlock",
              "type": "uint32"
            },
            {
              "internalType": "uint224",
              "name": "votes",
              "type": "uint224"
            }
          ],
          "internalType": "struct WQToken.Checkpoint",
          "name": "",
          "type": "tuple"
        }
      ],
      "stateMutability": "view",
      "type": "function"
    },
    {
      "inputs": [],
      "name": "decimals",
      "outputs": [
        {
          "internalType": "uint8",
          "name": "",
          "type": "uint8"
        }
      ],
      "stateMutability": "view",
      "type": "function"
    },
    {
      "inputs": [
        {
          "internalType": "address",
          "name": "spender",
          "type": "address"
        },
        {
          "internalType": "uint256",
          "name": "subtractedValue",
          "type": "uint256"
        }
      ],
      "name": "decreaseAllowance",
      "outputs": [
        {
          "internalType": "bool",
          "name": "",
          "type": "bool"
        }
      ],
      "stateMutability": "nonpayable",
      "type": "function"
    },
    {
      "inputs": [
        {
          "internalType": "address",
          "name": "delegatee",
          "type": "address"
        },
        {
          "internalType": "uint256",
          "name": "amount",
          "type": "uint256"
        }
      ],
      "name": "delegate",
      "outputs": [],
      "stateMutability": "nonpayable",
      "type": "function"
    },
    {
      "inputs": [
        {
          "internalType": "address",
          "name": "account",
          "type": "address"
        }
      ],
      "name": "delegates",
      "outputs": [
        {
          "internalType": "address",
          "name": "",
          "type": "address"
        }
      ],
      "stateMutability": "view",
      "type": "function"
    },
    {
      "inputs": [
        {
          "internalType": "address",
          "name": "account",
          "type": "address"
        }
      ],
      "name": "freezed",
      "outputs": [
        {
          "internalType": "uint256",
          "name": "",
          "type": "uint256"
        }
      ],
      "stateMutability": "view",
      "type": "function"
    },
    {
      "inputs": [
        {
          "internalType": "address",
          "name": "account",
          "type": "address"
        },
        {
          "internalType": "uint256",
          "name": "blockNumber",
          "type": "uint256"
        }
      ],
      "name": "getPastVotes",
      "outputs": [
        {
          "internalType": "uint256",
          "name": "",
          "type": "uint256"
        }
      ],
      "stateMutability": "view",
      "type": "function"
    },
    {
      "inputs": [
        {
          "internalType": "bytes32",
          "name": "role",
          "type": "bytes32"
        }
      ],
      "name": "getRoleAdmin",
      "outputs": [
        {
          "internalType": "bytes32",
          "name": "",
          "type": "bytes32"
        }
      ],
      "stateMutability": "view",
      "type": "function"
    },
    {
      "inputs": [
        {
          "internalType": "address[]",
          "name": "accounts",
          "type": "address[]"
        }
      ],
      "name": "getVotes",
      "outputs": [
        {
          "internalType": "uint256[]",
          "name": "_delegatee",
          "type": "uint256[]"
        }
      ],
      "stateMutability": "view",
      "type": "function"
    },
    {
      "inputs": [
        {
          "internalType": "bytes32",
          "name": "role",
          "type": "bytes32"
        },
        {
          "internalType": "address",
          "name": "account",
          "type": "address"
        }
      ],
      "name": "grantRole",
      "outputs": [],
      "stateMutability": "nonpayable",
      "type": "function"
    },
    {
      "inputs": [
        {
          "internalType": "bytes32",
          "name": "role",
          "type": "bytes32"
        },
        {
          "internalType": "address",
          "name": "account",
          "type": "address"
        }
      ],
      "name": "hasRole",
      "outputs": [
        {
          "internalType": "bool",
          "name": "",
          "type": "bool"
        }
      ],
      "stateMutability": "view",
      "type": "function"
    },
    {
      "inputs": [
        {
          "internalType": "address",
          "name": "spender",
          "type": "address"
        },
        {
          "internalType": "uint256",
          "name": "addedValue",
          "type": "uint256"
        }
      ],
      "name": "increaseAllowance",
      "outputs": [
        {
          "internalType": "bool",
          "name": "",
          "type": "bool"
        }
      ],
      "stateMutability": "nonpayable",
      "type": "function"
    },
    {
      "inputs": [
        {
          "internalType": "uint256",
          "name": "initialSupply",
          "type": "uint256"
        }
      ],
      "name": "initialize",
      "outputs": [],
      "stateMutability": "nonpayable",
      "type": "function"
    },
    {
      "inputs": [],
      "name": "lockTransfers",
      "outputs": [],
      "stateMutability": "nonpayable",
      "type": "function"
    },
    {
      "inputs": [
        {
          "internalType": "address",
          "name": "account",
          "type": "address"
        },
        {
          "internalType": "uint256",
          "name": "amount",
          "type": "uint256"
        }
      ],
      "name": "mint",
      "outputs": [],
      "stateMutability": "nonpayable",
      "type": "function"
    },
    {
      "inputs": [],
      "name": "name",
      "outputs": [
        {
          "internalType": "string",
          "name": "",
          "type": "string"
        }
      ],
      "stateMutability": "view",
      "type": "function"
    },
    {
      "inputs": [
        {
          "internalType": "address",
          "name": "account",
          "type": "address"
        }
      ],
      "name": "numCheckpoints",
      "outputs": [
        {
          "internalType": "uint32",
          "name": "",
          "type": "uint32"
        }
      ],
      "stateMutability": "view",
      "type": "function"
    },
    {
      "inputs": [],
      "name": "owner",
      "outputs": [
        {
          "internalType": "address",
          "name": "",
          "type": "address"
        }
      ],
      "stateMutability": "view",
      "type": "function"
    },
    {
      "inputs": [],
      "name": "proxiableUUID",
      "outputs": [
        {
          "internalType": "bytes32",
          "name": "",
          "type": "bytes32"
        }
      ],
      "stateMutability": "view",
      "type": "function"
    },
    {
      "inputs": [
        {
          "internalType": "bytes32",
          "name": "role",
          "type": "bytes32"
        },
        {
          "internalType": "address",
          "name": "account",
          "type": "address"
        }
      ],
      "name": "renounceRole",
      "outputs": [],
      "stateMutability": "nonpayable",
      "type": "function"
    },
    {
      "inputs": [
        {
          "internalType": "bytes32",
          "name": "role",
          "type": "bytes32"
        },
        {
          "internalType": "address",
          "name": "account",
          "type": "address"
        }
      ],
      "name": "revokeRole",
      "outputs": [],
      "stateMutability": "nonpayable",
      "type": "function"
    },
    {
      "inputs": [
        {
          "internalType": "address",
          "name": "saleContract",
          "type": "address"
        }
      ],
      "name": "setSaleContract",
      "outputs": [],
      "stateMutability": "nonpayable",
      "type": "function"
    },
    {
      "inputs": [
        {
          "internalType": "bytes4",
          "name": "interfaceId",
          "type": "bytes4"
        }
      ],
      "name": "supportsInterface",
      "outputs": [
        {
          "internalType": "bool",
          "name": "",
          "type": "bool"
        }
      ],
      "stateMutability": "view",
      "type": "function"
    },
    {
      "inputs": [],
      "name": "symbol",
      "outputs": [
        {
          "internalType": "string",
          "name": "",
          "type": "string"
        }
      ],
      "stateMutability": "view",
      "type": "function"
    },
    {
      "inputs": [],
      "name": "totalSupply",
      "outputs": [
        {
          "internalType": "uint256",
          "name": "",
          "type": "uint256"
        }
      ],
      "stateMutability": "view",
      "type": "function"
    },
    {
      "inputs": [
        {
          "internalType": "address",
          "name": "recipient",
          "type": "address"
        },
        {
          "internalType": "uint256",
          "name": "amount",
          "type": "uint256"
        }
      ],
      "name": "transfer",
      "outputs": [
        {
          "internalType": "bool",
          "name": "",
          "type": "bool"
        }
      ],
      "stateMutability": "nonpayable",
      "type": "function"
    },
    {
      "inputs": [
        {
          "internalType": "address",
          "name": "sender",
          "type": "address"
        },
        {
          "internalType": "address",
          "name": "recipient",
          "type": "address"
        },
        {
          "internalType": "uint256",
          "name": "amount",
          "type": "uint256"
        }
      ],
      "name": "transferFrom",
      "outputs": [
        {
          "internalType": "bool",
          "name": "",
          "type": "bool"
        }
      ],
      "stateMutability": "nonpayable",
      "type": "function"
    },
    {
      "inputs": [],
      "name": "undelegate",
      "outputs": [],
      "stateMutability": "nonpayable",
      "type": "function"
    },
    {
      "inputs": [],
      "name": "unlockTransfers",
      "outputs": [],
      "stateMutability": "nonpayable",
      "type": "function"
    },
    {
      "inputs": [],
      "name": "unlockTransfersPermanent",
      "outputs": [],
      "stateMutability": "nonpayable",
      "type": "function"
    },
    {
      "inputs": [
        {
          "internalType": "address",
          "name": "newImplementation",
          "type": "address"
        }
      ],
      "name": "upgradeTo",
      "outputs": [],
      "stateMutability": "nonpayable",
      "type": "function"
    },
    {
      "inputs": [
        {
          "internalType": "address",
          "name": "newImplementation",
          "type": "address"
        },
        {
          "internalType": "bytes",
          "name": "data",
          "type": "bytes"
        }
      ],
      "name": "upgradeToAndCall",
      "outputs": [],
      "stateMutability": "payable",
      "type": "function"
    }
  ],
  "bytecode": "0x60a0604052306080523480156200001557600080fd5b50600054610100900460ff16620000335760005460ff16156200003d565b6200003d620000e2565b620000a55760405162461bcd60e51b815260206004820152602e60248201527f496e697469616c697a61626c653a20636f6e747261637420697320616c72656160448201526d191e481a5b9a5d1a585b1a5e995960921b606482015260840160405180910390fd5b600054610100900460ff16158015620000c8576000805461ffff19166101011790555b8015620000db576000805461ff00191690555b506200010f565b6000620000fa306200010060201b620015321760201c565b15905090565b6001600160a01b03163b151590565b60805161302d6200014760003960008181610b8401528181610bc401528181610d8f01528181610dcf0152610e5e015261302d6000f3fe6080604052600436106102465760003560e01c8063587cde1e116101395780639dc29fac116100b6578063d547741f1161007a578063d547741f1461077b578063dd62ed3e1461079b578063de08c292146107e2578063f1127ed8146107f7578063f72c0d8b14610841578063fe4b84df1461086357600080fd5b80639dc29fac146106d2578063a217fddf146106f2578063a457c2d714610707578063a9059cbb14610727578063d53913931461074757600080fd5b806382b74b89116100fd57806382b74b89146106395780638da5cb5b1461064e57806391d148541461066e57806392ab89bb1461068e57806395d89b41146106a357600080fd5b8063587cde1e1461052d5780636fcfff451461057e57806370a08231146105b357806375b238fc146105ea5780637b6f93381461060c57600080fd5b80632f2ff15d116101c75780633a46b1a81161018b5780633a46b1a81461048e578063406f11f5146104ae57806340c10f19146104e55780634f1ef2861461050557806352d1902d1461051857600080fd5b80632f2ff15d146103e7578063313ce5671461040757806336568abe1461042e5780633659cfe61461044e578063395093511461046e57600080fd5b806318160ddd1161020e57806318160ddd1461032a57806321842be31461034e57806323b872dd14610363578063248a9ca314610383578063282c51f3146103b357600080fd5b806301ffc9a71461024b578063026e402b146102805780630593d244146102a257806306fdde03146102c2578063095ea7b31461030a575b600080fd5b34801561025757600080fd5b5061026b6102663660046129aa565b610883565b60405190151581526020015b60405180910390f35b34801561028c57600080fd5b506102a061029b3660046129f0565b6108ba565b005b3480156102ae57600080fd5b506102a06102bd366004612a1a565b6108c9565b3480156102ce57600080fd5b506102fd6040518060400160405280600f81526020016e2bb7b935a8bab2b9ba102a37b5b2b760891b81525081565b6040516102779190612a61565b34801561031657600080fd5b5061026b6103253660046129f0565b610995565b34801561033657600080fd5b5061034060fb5481565b604051908152602001610277565b34801561035a57600080fd5b506102a06109ab565b34801561036f57600080fd5b5061026b61037e366004612a94565b6109ff565b34801561038f57600080fd5b5061034061039e366004612ad0565b60009081526065602052604090206001015490565b3480156103bf57600080fd5b506103407f3c11d16cbaffd01df69ce1c404f6340ee057498f5f00246190ea54220576a84881565b3480156103f357600080fd5b506102a0610402366004612ae9565b610ad4565b34801561041357600080fd5b5061041c601281565b60405160ff9091168152602001610277565b34801561043a57600080fd5b506102a0610449366004612ae9565b610aff565b34801561045a57600080fd5b506102a0610469366004612a1a565b610b79565b34801561047a57600080fd5b5061026b6104893660046129f0565b610c59565b34801561049a57600080fd5b506103406104a93660046129f0565b610c91565b3480156104ba57600080fd5b506103406104c9366004612a1a565b6001600160a01b03166000908152610102602052604090205490565b3480156104f157600080fd5b506102a06105003660046129f0565b610d04565b6102a0610513366004612b2b565b610d84565b34801561052457600080fd5b50610340610e51565b34801561053957600080fd5b50610566610548366004612a1a565b6001600160a01b03908116600090815260fe60205260409020541690565b6040516001600160a01b039091168152602001610277565b34801561058a57600080fd5b5061059e610599366004612a1a565b610f04565b60405163ffffffff9091168152602001610277565b3480156105bf57600080fd5b506103406105ce366004612a1a565b6001600160a01b03166000908152610100602052604090205490565b3480156105f657600080fd5b50610340600080516020612fd883398151915281565b34801561061857600080fd5b5061062c610627366004612bed565b610f26565b6040516102779190612c62565b34801561064557600080fd5b506102a061108b565b34801561065a57600080fd5b5060fd54610566906001600160a01b031681565b34801561067a57600080fd5b5061026b610689366004612ae9565b6110e2565b34801561069a57600080fd5b506102a061110d565b3480156106af57600080fd5b506102fd6040518060400160405280600381526020016215d45560ea1b81525081565b3480156106de57600080fd5b506102a06106ed3660046129f0565b611118565b3480156106fe57600080fd5b50610340600081565b34801561071357600080fd5b5061026b6107223660046129f0565b611198565b34801561073357600080fd5b5061026b6107423660046129f0565b61124f565b34801561075357600080fd5b506103407f9f2df0fed2c77648de5860a4cc508cd0818c85b8b8a1ab4ceeef8d981c8956a681565b34801561078757600080fd5b506102a0610796366004612ae9565b61125c565b3480156107a757600080fd5b506103406107b6366004612ca6565b6001600160a01b0391821660009081526101036020908152604080832093909416825291909152205490565b3480156107ee57600080fd5b506102a0611282565b34801561080357600080fd5b50610817610812366004612cd0565b6112db565b60408051825163ffffffff1681526020928301516001600160e01b03169281019290925201610277565b34801561084d57600080fd5b50610340600080516020612f7183398151915281565b34801561086f57600080fd5b506102a061087e366004612ad0565b61135f565b60006001600160e01b03198216637965db0b60e01b14806108b457506301ffc9a760e01b6001600160e01b03198316145b92915050565b6108c5338383611541565b5050565b6108e1600080516020612fd8833981519152336110e2565b80156108fc575060fc546201000090046001600160a01b0316155b61096b5760405162461bcd60e51b815260206004820152603560248201527f5751543a2043616c6c6572206d757374206265206f776e657220616e64205f73604482015274185b1950dbdb9d1c9858dd081e595d081d5b9cd95d605a1b60648201526084015b60405180910390fd5b60fc80546001600160a01b03909216620100000262010000600160b01b0319909216919091179055565b60006109a233848461174c565b50600192915050565b6109c3600080516020612fd8833981519152336110e2565b80156109d7575060fc54610100900460ff16155b6109f35760405162461bcd60e51b815260040161096290612d10565b60fc805460ff19169055565b6001600160a01b038316600090815261010360209081526040808320338452909152812054821115610a825760405162461bcd60e51b815260206004820152602660248201527f5751543a205472616e7366657220616d6f756e74206578636565647320616c6c6044820152656f77616e636560d01b6064820152608401610962565b610a8d848484611866565b6001600160a01b03841660009081526101036020908152604080832033808552925290912054610ac9918691610ac4908690612d76565b61174c565b5060015b9392505050565b600082815260656020526040902060010154610af081336119d6565b610afa8383611a3a565b505050565b6001600160a01b0381163314610b6f5760405162461bcd60e51b815260206004820152602f60248201527f416363657373436f6e74726f6c3a2063616e206f6e6c792072656e6f756e636560448201526e103937b632b9903337b91039b2b63360891b6064820152608401610962565b6108c58282611ac0565b306001600160a01b037f0000000000000000000000000000000000000000000000000000000000000000161415610bc25760405162461bcd60e51b815260040161096290612d8d565b7f00000000000000000000000000000000000000000000000000000000000000006001600160a01b0316610c0b600080516020612f91833981519152546001600160a01b031690565b6001600160a01b031614610c315760405162461bcd60e51b815260040161096290612dd9565b610c3a81611b27565b60408051600080825260208201909252610c5691839190611b40565b50565b336000818152610103602090815260408083206001600160a01b038716845290915281205490916109a2918590610ac4908690612e25565b6000438210610ce25760405162461bcd60e51b815260206004820152601860248201527f5751543a20626c6f636b206e6f7420796574206d696e656400000000000000006044820152606401610962565b6001600160a01b038316600090815260ff60205260409020610acd9083611cba565b610d2e7f9f2df0fed2c77648de5860a4cc508cd0818c85b8b8a1ab4ceeef8d981c8956a6336110e2565b610d7a5760405162461bcd60e51b815260206004820152601e60248201527f5751543a2053656e6465722073686f756c6420626520612062726964676500006044820152606401610962565b6108c58282611d77565b306001600160a01b037f0000000000000000000000000000000000000000000000000000000000000000161415610dcd5760405162461bcd60e51b815260040161096290612d8d565b7f00000000000000000000000000000000000000000000000000000000000000006001600160a01b0316610e16600080516020612f91833981519152546001600160a01b031690565b6001600160a01b031614610e3c5760405162461bcd60e51b815260040161096290612dd9565b610e4582611b27565b6108c582826001611b40565b6000306001600160a01b037f00000000000000000000000000000000000000000000000000000000000000001614610ef15760405162461bcd60e51b815260206004820152603860248201527f555550535570677261646561626c653a206d757374206e6f742062652063616c60448201527f6c6564207468726f7567682064656c656761746563616c6c00000000000000006064820152608401610962565b50600080516020612f9183398151915290565b6001600160a01b038116600090815260ff60205260408120546108b490611ecf565b60608167ffffffffffffffff811115610f4157610f41612b15565b604051908082528060200260200182016040528015610f6a578160200160208202803683370190505b50905060005b8281101561108457600060ff6000868685818110610f9057610f90612e3d565b9050602002016020810190610fa59190612a1a565b6001600160a01b03168152602081019190915260400160002054905080156110485760ff6000868685818110610fdd57610fdd612e3d565b9050602002016020810190610ff29190612a1a565b6001600160a01b031681526020810191909152604001600020611016600183612d76565b8154811061102657611026612e3d565b60009182526020909120015464010000000090046001600160e01b031661104b565b60005b6001600160e01b031683838151811061106657611066612e3d565b6020908102919091010152508061107c81612e53565b915050610f70565b5092915050565b6110a3600080516020612fd8833981519152336110e2565b80156110b7575060fc54610100900460ff16155b6110d35760405162461bcd60e51b815260040161096290612d10565b60fc805460ff19166001179055565b60009182526065602090815260408084206001600160a01b0393909316845291905290205460ff1690565b61111633611f38565b565b6111427f3c11d16cbaffd01df69ce1c404f6340ee057498f5f00246190ea54220576a848336110e2565b61118e5760405162461bcd60e51b815260206004820152601e60248201527f5751543a2053656e6465722073686f756c6420626520612062726964676500006044820152606401610962565b6108c58282611fec565b336000908152610103602090815260408083206001600160a01b03861684529091528120548211156112185760405162461bcd60e51b815260206004820152602360248201527f5751543a2044656372656173656420616c6c6f77616e63652062656c6f77207a60448201526265726f60e81b6064820152608401610962565b336000818152610103602090815260408083206001600160a01b03881684529091529020546109a291908590610ac4908690612d76565b60006109a2338484611866565b60008281526065602052604090206001015461127881336119d6565b610afa8383611ac0565b61129a600080516020612fd8833981519152336110e2565b80156112ae575060fc54610100900460ff16155b6112ca5760405162461bcd60e51b815260040161096290612d10565b60fc805461ffff1916610100179055565b60408051808201909152600080825260208201526001600160a01b038316600090815260ff60205260409020805463ffffffff841690811061131f5761131f612e3d565b60009182526020918290206040805180820190915291015463ffffffff8116825264010000000090046001600160e01b0316918101919091529392505050565b600054610100900460ff1661137a5760005460ff161561137e565b303b155b6113e15760405162461bcd60e51b815260206004820152602e60248201527f496e697469616c697a61626c653a20636f6e747261637420697320616c72656160448201526d191e481a5b9a5d1a585b1a5e995960921b6064820152608401610962565b600054610100900460ff16158015611403576000805461ffff19166101011790555b61140b6120d1565b6114136120d1565b60fd80546001600160a01b031916339081179091556114329083611d77565b60fd5461144a906000906001600160a01b031661213c565b60fd5461146f90600080516020612fd8833981519152906001600160a01b031661213c565b611487600080516020612f718339815191523361213c565b6114bf7f9f2df0fed2c77648de5860a4cc508cd0818c85b8b8a1ab4ceeef8d981c8956a6600080516020612fd8833981519152612146565b6114f77f3c11d16cbaffd01df69ce1c404f6340ee057498f5f00246190ea54220576a848600080516020612fd8833981519152612146565b61151d600080516020612f71833981519152600080516020612fd8833981519152612146565b80156108c5576000805461ff00191690555050565b6001600160a01b03163b151590565b6001600160a01b0383166115aa5760405162461bcd60e51b815260206004820152602a60248201527f5751543a2043616e7427742064656c65676174652066726f6d20746865207a65604482015269726f206164647265737360b01b6064820152608401610962565b6001600160a01b0382166116115760405162461bcd60e51b815260206004820152602860248201527f5751543a2043616e7427742064656c656761746520746f20746865207a65726f604482015267206164647265737360c01b6064820152608401610962565b6001600160a01b038316600090815261010060205260409020548111156116865760405162461bcd60e51b815260206004820152602360248201527f5751543a204e6f7420656e6f7567682062616c616e636520746f2064656c656760448201526261746560e81b6064820152608401610962565b6001600160a01b03838116600081815260fe6020526040808220549051848716949190911692917f3134e8a2e6d97e929a7e54011ea5485d7d196dd5f0ba4d4ef95803e8e3fc257f91a46001600160a01b03808416600090815260fe602090815260408083205461010290925282205461170593919091169190612191565b61171160008383612191565b6001600160a01b039283166000908152610102602090815260408083209390935560fe90522080546001600160a01b03191691909216179055565b6001600160a01b0383166117ad5760405162461bcd60e51b815260206004820152602260248201527f5751543a20617070726f76652066726f6d20746865207a65726f206164647265604482015261737360f01b6064820152608401610962565b6001600160a01b0382166118035760405162461bcd60e51b815260206004820181905260248201527f5751543a20617070726f766520746f20746865207a65726f20616464726573736044820152606401610962565b6001600160a01b038381166000818152610103602090815260408083209487168084529482529182902085905590518481527f8c5be1e5ebec7d5bd14f71427d1e84f3dd0314c0f7b2291e5b200ac8c7c3b92591015b60405180910390a3505050565b6001600160a01b0383166118c85760405162461bcd60e51b815260206004820152602360248201527f5751543a207472616e736665722066726f6d20746865207a65726f206164647260448201526265737360e81b6064820152608401610962565b6001600160a01b0382166119285760405162461bcd60e51b815260206004820152602160248201527f5751543a207472616e7366657220746f20746865207a65726f206164647265736044820152607360f81b6064820152608401610962565b6119338383836122c6565b6001600160a01b038316600090815261010060205260408120805483929061195c908490612d76565b90915550506001600160a01b038216600090815261010060205260408120805483929061198a908490612e25565b92505081905550816001600160a01b0316836001600160a01b03167fddf252ad1be2c89b69c2b068fc378daa952ba7f163c4a11628f55a4df523b3ef8360405161185991815260200190565b6119e082826110e2565b6108c5576119f8816001600160a01b031660146123c5565b611a038360206123c5565b604051602001611a14929190612e6e565b60408051601f198184030181529082905262461bcd60e51b825261096291600401612a61565b611a4482826110e2565b6108c55760008281526065602090815260408083206001600160a01b03851684529091529020805460ff19166001179055611a7c3390565b6001600160a01b0316816001600160a01b0316837f2f8788117e7eff1d82e926ec794901d17c78024a50270940304540a733656f0d60405160405180910390a45050565b611aca82826110e2565b156108c55760008281526065602090815260408083206001600160a01b0385168085529252808320805460ff1916905551339285917ff6391f5c32d9c69d2a47ea670b442974b53935d1edc7fd64eb21e047a839171b9190a45050565b600080516020612f718339815191526108c581336119d6565b7f4910fdfa16fed3260ed0e7147f7cc6da11a60208b5b9406d12a635614ffd91435460ff1615611b7357610afa83612561565b826001600160a01b03166352d1902d6040518163ffffffff1660e01b815260040160206040518083038186803b158015611bac57600080fd5b505afa925050508015611bdc575060408051601f3d908101601f19168201909252611bd991810190612ee3565b60015b611c3f5760405162461bcd60e51b815260206004820152602e60248201527f45524331393637557067726164653a206e657720696d706c656d656e7461746960448201526d6f6e206973206e6f74205555505360901b6064820152608401610962565b600080516020612f918339815191528114611cae5760405162461bcd60e51b815260206004820152602960248201527f45524331393637557067726164653a20756e737570706f727465642070726f786044820152681a58589b195555525160ba1b6064820152608401610962565b50610afa8383836125fd565b8154600090815b81811015611d1e576000611cd58284612628565b905084868281548110611cea57611cea612e3d565b60009182526020909120015463ffffffff161115611d0a57809250611d18565b611d15816001612e25565b91505b50611cc1565b8115611d625784611d30600184612d76565b81548110611d4057611d40612e3d565b60009182526020909120015464010000000090046001600160e01b0316611d65565b60005b6001600160e01b031695945050505050565b6001600160a01b038216611dcd5760405162461bcd60e51b815260206004820152601d60248201527f5751543a206d696e7420746f20746865207a65726f20616464726573730000006044820152606401610962565b8060fb6000828254611ddf9190612e25565b909155505060fb546001600160e01b031015611e4f5760405162461bcd60e51b815260206004820152602960248201527f5751543a20746f74616c20737570706c79207269736b73206f766572666c6f77604482015268696e6720766f74657360b81b6064820152608401610962565b611e5b600083836122c6565b6001600160a01b0382166000908152610100602052604081208054839290611e84908490612e25565b90915550506040518181526001600160a01b038316906000907fddf252ad1be2c89b69c2b068fc378daa952ba7f163c4a11628f55a4df523b3ef906020015b60405180910390a35050565b600063ffffffff821115611f345760405162461bcd60e51b815260206004820152602660248201527f53616665436173743a2076616c756520646f65736e27742066697420696e203360448201526532206269747360d01b6064820152608401610962565b5090565b6001600160a01b03818116600081815260fe602052604080822054905191931691907f3134e8a2e6d97e929a7e54011ea5485d7d196dd5f0ba4d4ef95803e8e3fc257f908490a46001600160a01b03808216600090815260fe6020908152604080832054610102909252822054611fb493919091169190612191565b6001600160a01b031660009081526101026020908152604080832083905533835260fe909152902080546001600160a01b0319169055565b6001600160a01b0382166120425760405162461bcd60e51b815260206004820152601f60248201527f5751543a206275726e2066726f6d20746865207a65726f2061646472657373006044820152606401610962565b61204e826000836122c6565b8060fb60008282546120609190612d76565b90915550506001600160a01b038216600090815261010060205260408120805483929061208e908490612d76565b90915550506040518181526000906001600160a01b038416907fddf252ad1be2c89b69c2b068fc378daa952ba7f163c4a11628f55a4df523b3ef90602001611ec3565b600054610100900460ff166111165760405162461bcd60e51b815260206004820152602b60248201527f496e697469616c697a61626c653a20636f6e7472616374206973206e6f74206960448201526a6e697469616c697a696e6760a81b6064820152608401610962565b6108c58282611a3a565b600082815260656020526040808220600101805490849055905190918391839186917fbd79b86ffe0ab8e8776151514217cd7cacd52c909f66475c3af44e129f0b00ff9190a4505050565b816001600160a01b0316836001600160a01b0316141580156121b35750600081115b15610afa576001600160a01b0383161561223d576001600160a01b038316600090815260ff6020526040812081906121ee906126438561264f565b60408051838152602081018390529294509092506001600160a01b0387169133917f8553411b8bbb348336351063649aa1f4fa74c4935f5c4386469a017df33a1f66910160405180910390a350505b6001600160a01b03821615610afa576001600160a01b038216600090815260ff602052604081208190612273906127c88561264f565b60408051838152602081018390529294509092506001600160a01b0386169133917f8553411b8bbb348336351063649aa1f4fa74c4935f5c4386469a017df33a1f66910160405180910390a35050505050565b60fc5460ff1615806122e8575060fc546201000090046001600160a01b031633145b61232c5760405162461bcd60e51b815260206004820152601560248201527415d4550e88151c985b9cd9995c9cc81b1bd8dad959605a1b6044820152606401610962565b6001600160a01b03831615610afa576001600160a01b038316600090815261010260209081526040808320546101009092529091205461236c9190612d76565b811115610afa5760405162461bcd60e51b815260206004820152602160248201527f5751543a20546f6b656e20616d6f756e7420657863656564732062616c616e636044820152606560f81b6064820152608401610962565b606060006123d4836002612efc565b6123df906002612e25565b67ffffffffffffffff8111156123f7576123f7612b15565b6040519080825280601f01601f191660200182016040528015612421576020820181803683370190505b509050600360fc1b8160008151811061243c5761243c612e3d565b60200101906001600160f81b031916908160001a905350600f60fb1b8160018151811061246b5761246b612e3d565b60200101906001600160f81b031916908160001a905350600061248f846002612efc565b61249a906001612e25565b90505b6001811115612512576f181899199a1a9b1b9c1cb0b131b232b360811b85600f16601081106124ce576124ce612e3d565b1a60f81b8282815181106124e4576124e4612e3d565b60200101906001600160f81b031916908160001a90535060049490941c9361250b81612f1b565b905061249d565b508315610acd5760405162461bcd60e51b815260206004820181905260248201527f537472696e67733a20686578206c656e67746820696e73756666696369656e746044820152606401610962565b6001600160a01b0381163b6125ce5760405162461bcd60e51b815260206004820152602d60248201527f455243313936373a206e657720696d706c656d656e746174696f6e206973206e60448201526c1bdd08184818dbdb9d1c9858dd609a1b6064820152608401610962565b600080516020612f9183398151915280546001600160a01b0319166001600160a01b0392909216919091179055565b612606836127d4565b6000825111806126135750805b15610afa576126228383612814565b50505050565b60006126376002848418612f32565b610acd90848416612e25565b6000610acd8284612d76565b82546000908190801561269a5785612668600183612d76565b8154811061267857612678612e3d565b60009182526020909120015464010000000090046001600160e01b031661269d565b60005b6001600160e01b031692506126b683858763ffffffff16565b91506000811180156126f4575043866126d0600184612d76565b815481106126e0576126e0612e3d565b60009182526020909120015463ffffffff16145b156127545761270282612908565b8661270e600184612d76565b8154811061271e5761271e612e3d565b9060005260206000200160000160046101000a8154816001600160e01b0302191690836001600160e01b031602179055506127bf565b85604051806040016040528061276943611ecf565b63ffffffff16815260200161277d85612908565b6001600160e01b0390811690915282546001810184556000938452602093849020835194909301519091166401000000000263ffffffff909316929092179101555b50935093915050565b6000610acd8284612e25565b6127dd81612561565b6040516001600160a01b038216907fbc7cd75a20ee27fd9adebab32041f755214dbc6bffa90cc0225b39da2e5c2d3b90600090a250565b60606001600160a01b0383163b61287c5760405162461bcd60e51b815260206004820152602660248201527f416464726573733a2064656c65676174652063616c6c20746f206e6f6e2d636f6044820152651b9d1c9858dd60d21b6064820152608401610962565b600080846001600160a01b0316846040516128979190612f54565b600060405180830381855af49150503d80600081146128d2576040519150601f19603f3d011682016040523d82523d6000602084013e6128d7565b606091505b50915091506128ff8282604051806060016040528060278152602001612fb160279139612971565b95945050505050565b60006001600160e01b03821115611f345760405162461bcd60e51b815260206004820152602760248201527f53616665436173743a2076616c756520646f65736e27742066697420696e20326044820152663234206269747360c81b6064820152608401610962565b60608315612980575081610acd565b8251156129905782518084602001fd5b8160405162461bcd60e51b81526004016109629190612a61565b6000602082840312156129bc57600080fd5b81356001600160e01b031981168114610acd57600080fd5b80356001600160a01b03811681146129eb57600080fd5b919050565b60008060408385031215612a0357600080fd5b612a0c836129d4565b946020939093013593505050565b600060208284031215612a2c57600080fd5b610acd826129d4565b60005b83811015612a50578181015183820152602001612a38565b838111156126225750506000910152565b6020815260008251806020840152612a80816040850160208701612a35565b601f01601f19169190910160400192915050565b600080600060608486031215612aa957600080fd5b612ab2846129d4565b9250612ac0602085016129d4565b9150604084013590509250925092565b600060208284031215612ae257600080fd5b5035919050565b60008060408385031215612afc57600080fd5b82359150612b0c602084016129d4565b90509250929050565b634e487b7160e01b600052604160045260246000fd5b60008060408385031215612b3e57600080fd5b612b47836129d4565b9150602083013567ffffffffffffffff80821115612b6457600080fd5b818501915085601f830112612b7857600080fd5b813581811115612b8a57612b8a612b15565b604051601f8201601f19908116603f01168101908382118183101715612bb257612bb2612b15565b81604052828152886020848701011115612bcb57600080fd5b8260208601602083013760006020848301015280955050505050509250929050565b60008060208385031215612c0057600080fd5b823567ffffffffffffffff80821115612c1857600080fd5b818501915085601f830112612c2c57600080fd5b813581811115612c3b57600080fd5b8660208260051b8501011115612c5057600080fd5b60209290920196919550909350505050565b6020808252825182820181905260009190848201906040850190845b81811015612c9a57835183529284019291840191600101612c7e565b50909695505050505050565b60008060408385031215612cb957600080fd5b612cc2836129d4565b9150612b0c602084016129d4565b60008060408385031215612ce357600080fd5b612cec836129d4565b9150602083013563ffffffff81168114612d0557600080fd5b809150509250929050565b60208082526030908201527f5751543a2043616c6c6572206d757374206265206f776e657220616e64205f7560408201526f6e6c6f636b46697865642066616c736560801b606082015260800190565b634e487b7160e01b600052601160045260246000fd5b600082821015612d8857612d88612d60565b500390565b6020808252602c908201527f46756e6374696f6e206d7573742062652063616c6c6564207468726f7567682060408201526b19195b1959d85d1958d85b1b60a21b606082015260800190565b6020808252602c908201527f46756e6374696f6e206d7573742062652063616c6c6564207468726f7567682060408201526b6163746976652070726f787960a01b606082015260800190565b60008219821115612e3857612e38612d60565b500190565b634e487b7160e01b600052603260045260246000fd5b6000600019821415612e6757612e67612d60565b5060010190565b7f416363657373436f6e74726f6c3a206163636f756e7420000000000000000000815260008351612ea6816017850160208801612a35565b7001034b99036b4b9b9b4b733903937b6329607d1b6017918401918201528351612ed7816028840160208801612a35565b01602801949350505050565b600060208284031215612ef557600080fd5b5051919050565b6000816000190483118215151615612f1657612f16612d60565b500290565b600081612f2a57612f2a612d60565b506000190190565b600082612f4f57634e487b7160e01b600052601260045260246000fd5b500490565b60008251612f66818460208701612a35565b919091019291505056fe189ab7a9244df0848122154315af71fe140f3db0fe014031783b0946b8c9d2e3360894a13ba1a3210667c828492db98dca3e2076cc3735a920a3ca505d382bbc416464726573733a206c6f772d6c6576656c2064656c65676174652063616c6c206661696c6564a49807205ce4d355092ef5a8a18f56e8913cf4a201fbe287825b095693c21775a26469706673582212207497bf8631f37eb120be358da02351c78efd228287f67724b18c6ddfde06b7a964736f6c63430008090033",
  "linkReferences": {},
  "deployedLinkReferences": {}
}