{
  "_format": "hh-sol-artifact-1",
  "contractName": "WorkQuestFactory",
  "sourceName": "contracts/WorkQuestFactory.sol",
  "abi": [
    {
      "inputs": [],
      "stateMutability": "nonpayable",
      "type": "constructor"
    },
    {
      "anonymous": false,
      "inputs": [
        {
          "indexed": false,
          "internalType": "address",
          "name": "previousAdmin",
          "type": "address"
        },
        {
          "indexed": false,
          "internalType": "address",
          "name": "newAdmin",
          "type": "address"
        }
      ],
      "name": "AdminChanged",
      "type": "event"
    },
    {
      "anonymous": false,
      "inputs": [
        {
          "indexed": true,
          "internalType": "address",
          "name": "beacon",
          "type": "address"
        }
      ],
      "name": "BeaconUpgraded",
      "type": "event"
    },
    {
      "anonymous": false,
      "inputs": [
        {
          "indexed": true,
          "internalType": "bytes32",
          "name": "role",
          "type": "bytes32"
        },
        {
          "indexed": true,
          "internalType": "bytes32",
          "name": "previousAdminRole",
          "type": "bytes32"
        },
        {
          "indexed": true,
          "internalType": "bytes32",
          "name": "newAdminRole",
          "type": "bytes32"
        }
      ],
      "name": "RoleAdminChanged",
      "type": "event"
    },
    {
      "anonymous": false,
      "inputs": [
        {
          "indexed": true,
          "internalType": "bytes32",
          "name": "role",
          "type": "bytes32"
        },
        {
          "indexed": true,
          "internalType": "address",
          "name": "account",
          "type": "address"
        },
        {
          "indexed": true,
          "internalType": "address",
          "name": "sender",
          "type": "address"
        }
      ],
      "name": "RoleGranted",
      "type": "event"
    },
    {
      "anonymous": false,
      "inputs": [
        {
          "indexed": true,
          "internalType": "bytes32",
          "name": "role",
          "type": "bytes32"
        },
        {
          "indexed": true,
          "internalType": "address",
          "name": "account",
          "type": "address"
        },
        {
          "indexed": true,
          "internalType": "address",
          "name": "sender",
          "type": "address"
        }
      ],
      "name": "RoleRevoked",
      "type": "event"
    },
    {
      "anonymous": false,
      "inputs": [
        {
          "indexed": true,
          "internalType": "address",
          "name": "implementation",
          "type": "address"
        }
      ],
      "name": "Upgraded",
      "type": "event"
    },
    {
      "anonymous": false,
      "inputs": [
        {
          "indexed": false,
          "internalType": "bytes32",
          "name": "jobHash",
          "type": "bytes32"
        },
        {
          "indexed": false,
          "internalType": "address",
          "name": "employer",
          "type": "address"
        },
        {
          "indexed": false,
          "internalType": "address",
          "name": "workquest",
          "type": "address"
        },
        {
          "indexed": false,
          "internalType": "uint256",
          "name": "createdAt",
          "type": "uint256"
        },
        {
          "indexed": false,
          "internalType": "uint256",
          "name": "nonce",
          "type": "uint256"
        }
      ],
      "name": "WorkQuestCreated",
      "type": "event"
    },
    {
      "inputs": [],
      "name": "ADMIN_ROLE",
      "outputs": [
        {
          "internalType": "bytes32",
          "name": "",
          "type": "bytes32"
        }
      ],
      "stateMutability": "view",
      "type": "function"
    },
    {
      "inputs": [],
      "name": "DEFAULT_ADMIN_ROLE",
      "outputs": [
        {
          "internalType": "bytes32",
          "name": "",
          "type": "bytes32"
        }
      ],
      "stateMutability": "view",
      "type": "function"
    },
    {
      "inputs": [],
      "name": "UPGRADER_ROLE",
      "outputs": [
        {
          "internalType": "bytes32",
          "name": "",
          "type": "bytes32"
        }
      ],
      "stateMutability": "view",
      "type": "function"
    },
    {
      "inputs": [],
      "name": "allArbiters",
      "outputs": [
        {
          "internalType": "address payable[]",
          "name": "",
          "type": "address[]"
        }
      ],
      "stateMutability": "view",
      "type": "function"
    },
    {
      "inputs": [
        {
          "internalType": "uint256",
          "name": "",
          "type": "uint256"
        }
      ],
      "name": "arbiterList",
      "outputs": [
        {
          "internalType": "address payable",
          "name": "",
          "type": "address"
        }
      ],
      "stateMutability": "view",
      "type": "function"
    },
    {
      "inputs": [
        {
          "internalType": "address",
          "name": "",
          "type": "address"
        }
      ],
      "name": "arbiters",
      "outputs": [
        {
          "internalType": "uint256",
          "name": "idx",
          "type": "uint256"
        },
        {
          "internalType": "bool",
          "name": "status",
          "type": "bool"
        }
      ],
      "stateMutability": "view",
      "type": "function"
    },
    {
      "inputs": [],
      "name": "fee",
      "outputs": [
        {
          "internalType": "uint256",
          "name": "",
          "type": "uint256"
        }
      ],
      "stateMutability": "view",
      "type": "function"
    },
    {
      "inputs": [],
      "name": "feeReceiver",
      "outputs": [
        {
          "internalType": "address payable",
          "name": "",
          "type": "address"
        }
      ],
      "stateMutability": "view",
      "type": "function"
    },
    {
      "inputs": [
        {
          "internalType": "bytes32",
          "name": "role",
          "type": "bytes32"
        }
      ],
      "name": "getRoleAdmin",
      "outputs": [
        {
          "internalType": "bytes32",
          "name": "",
          "type": "bytes32"
        }
      ],
      "stateMutability": "view",
      "type": "function"
    },
    {
      "inputs": [
        {
          "internalType": "address",
          "name": "employer",
          "type": "address"
        }
      ],
      "name": "getWorkQuests",
      "outputs": [
        {
          "internalType": "address[]",
          "name": "",
          "type": "address[]"
        }
      ],
      "stateMutability": "view",
      "type": "function"
    },
    {
      "inputs": [
        {
          "internalType": "bytes32",
          "name": "role",
          "type": "bytes32"
        },
        {
          "internalType": "address",
          "name": "account",
          "type": "address"
        }
      ],
      "name": "grantRole",
      "outputs": [],
      "stateMutability": "nonpayable",
      "type": "function"
    },
    {
      "inputs": [
        {
          "internalType": "bytes32",
          "name": "role",
          "type": "bytes32"
        },
        {
          "internalType": "address",
          "name": "account",
          "type": "address"
        }
      ],
      "name": "hasRole",
      "outputs": [
        {
          "internalType": "bool",
          "name": "",
          "type": "bool"
        }
      ],
      "stateMutability": "view",
      "type": "function"
    },
    {
      "inputs": [
        {
          "internalType": "uint256",
          "name": "_fee",
          "type": "uint256"
        },
        {
          "internalType": "address payable",
          "name": "_feeReceiver",
          "type": "address"
        },
        {
          "internalType": "address payable",
          "name": "_pensionFund",
          "type": "address"
        },
        {
          "internalType": "address payable",
          "name": "_referral",
          "type": "address"
        }
      ],
      "name": "initialize",
      "outputs": [],
      "stateMutability": "nonpayable",
      "type": "function"
    },
    {
      "inputs": [
        {
          "internalType": "bytes32",
          "name": "jobHash",
          "type": "bytes32"
        },
        {
          "internalType": "uint256",
          "name": "cost",
          "type": "uint256"
        },
        {
          "internalType": "uint256",
          "name": "deadline",
          "type": "uint256"
        },
        {
          "internalType": "uint256",
          "name": "nonce",
          "type": "uint256"
        }
      ],
      "name": "newWorkQuest",
      "outputs": [],
      "stateMutability": "payable",
      "type": "function"
    },
    {
      "inputs": [],
      "name": "pensionFund",
      "outputs": [
        {
          "internalType": "address payable",
          "name": "",
          "type": "address"
        }
      ],
      "stateMutability": "view",
      "type": "function"
    },
    {
      "inputs": [],
      "name": "referral",
      "outputs": [
        {
          "internalType": "address payable",
          "name": "",
          "type": "address"
        }
      ],
      "stateMutability": "view",
      "type": "function"
    },
    {
      "inputs": [
        {
          "internalType": "bytes32",
          "name": "role",
          "type": "bytes32"
        },
        {
          "internalType": "address",
          "name": "account",
          "type": "address"
        }
      ],
      "name": "renounceRole",
      "outputs": [],
      "stateMutability": "nonpayable",
      "type": "function"
    },
    {
      "inputs": [
        {
          "internalType": "bytes32",
          "name": "role",
          "type": "bytes32"
        },
        {
          "internalType": "address",
          "name": "account",
          "type": "address"
        }
      ],
      "name": "revokeRole",
      "outputs": [],
      "stateMutability": "nonpayable",
      "type": "function"
    },
    {
      "inputs": [
        {
          "internalType": "bytes4",
          "name": "interfaceId",
          "type": "bytes4"
        }
      ],
      "name": "supportsInterface",
      "outputs": [
        {
          "internalType": "bool",
          "name": "",
          "type": "bool"
        }
      ],
      "stateMutability": "view",
      "type": "function"
    },
    {
      "inputs": [
        {
          "internalType": "address payable",
          "name": "_arbiter",
          "type": "address"
        },
        {
          "internalType": "bool",
          "name": "_enabled",
          "type": "bool"
        }
      ],
      "name": "updateArbiter",
      "outputs": [],
      "stateMutability": "nonpayable",
      "type": "function"
    },
    {
      "inputs": [
        {
          "internalType": "address payable",
          "name": "_feeReceiver",
          "type": "address"
        }
      ],
      "name": "updateFeeReceiver",
      "outputs": [],
      "stateMutability": "nonpayable",
      "type": "function"
    },
    {
      "inputs": [
        {
          "internalType": "address payable",
          "name": "_pensionFund",
          "type": "address"
        }
      ],
      "name": "updatePensionFund",
      "outputs": [],
      "stateMutability": "nonpayable",
      "type": "function"
    },
    {
      "inputs": [
        {
          "internalType": "address payable",
          "name": "_referral",
          "type": "address"
        }
      ],
      "name": "updateRefferal",
      "outputs": [],
      "stateMutability": "nonpayable",
      "type": "function"
    },
    {
      "inputs": [
        {
          "internalType": "address",
          "name": "newImplementation",
          "type": "address"
        }
      ],
      "name": "upgradeTo",
      "outputs": [],
      "stateMutability": "nonpayable",
      "type": "function"
    },
    {
      "inputs": [
        {
          "internalType": "address",
          "name": "newImplementation",
          "type": "address"
        },
        {
          "internalType": "bytes",
          "name": "data",
          "type": "bytes"
        }
      ],
      "name": "upgradeToAndCall",
      "outputs": [],
      "stateMutability": "payable",
      "type": "function"
    },
    {
      "inputs": [
        {
          "internalType": "address",
          "name": "",
          "type": "address"
        }
      ],
      "name": "workquestValid",
      "outputs": [
        {
          "internalType": "bool",
          "name": "",
          "type": "bool"
        }
      ],
      "stateMutability": "view",
      "type": "function"
    },
    {
      "inputs": [
        {
          "internalType": "address",
          "name": "",
          "type": "address"
        },
        {
          "internalType": "uint256",
          "name": "",
          "type": "uint256"
        }
      ],
      "name": "workquests",
      "outputs": [
        {
          "internalType": "address",
          "name": "",
          "type": "address"
        }
      ],
      "stateMutability": "view",
      "type": "function"
    }
  ],
  "bytecode": "0x60a06040523060601b60805234801561001757600080fd5b50600054610100900460ff1680610031575060005460ff16155b6100985760405162461bcd60e51b815260206004820152602e60248201527f496e697469616c697a61626c653a20636f6e747261637420697320616c72656160448201526d191e481a5b9a5d1a585b1a5e995960921b606482015260840160405180910390fd5b600054610100900460ff161580156100ba576000805461ffff19166101011790555b80156100cc576000805461ff00191690555b5060805160601c6139216101006000396000818161073f015281816107820152818161087901526108bc01526139216000f3fe608060405260043610620001be5760003560e01c806375b238fc11620000ff578063c846dccb1162000095578063d7bfcbfa116200006c578063d7bfcbfa1462000570578063ddca3f431462000595578063de6b516514620005ad578063f72c0d8b14620005d257600080fd5b8063c846dccb146200050f578063ce417cf21462000526578063d547741f146200054b57600080fd5b80639646d49111620000d65780639646d491146200048c578063a217fddf14620004b1578063b3f0067414620004c8578063c69bebe414620004ea57600080fd5b806375b238fc14620003f05780637bf2bb10146200041557806391d14854146200046757600080fd5b80632f2ff15d11620001755780634260175d116200014c5780634260175d14620003685780634f1ef286146200038f5780637414126614620003a6578063754d1d5414620003cb57600080fd5b80632f2ff15d14620002f957806336568abe146200031e5780633659cfe6146200034357600080fd5b806301ffc9a714620001c35780631441a5a914620001fd5780632372403c1462000238578063248a9ca3146200026d5780632cba90c714620002b05780632d792b6714620002d2575b600080fd5b348015620001d057600080fd5b50620001e8620001e236600462001aef565b62000608565b60405190151581526020015b60405180910390f35b3480156200020a57600080fd5b5060ff546200021f906001600160a01b031681565b6040516001600160a01b039091168152602001620001f4565b3480156200024557600080fd5b50620001e86200025736600462001925565b6101026020526000908152604090205460ff1681565b3480156200027a57600080fd5b50620002a16200028c36600462001a7d565b60009081526065602052604090206001015490565b604051908152602001620001f4565b348015620002bd57600080fd5b5060fe546200021f906001600160a01b031681565b348015620002df57600080fd5b50620002f7620002f136600462001925565b62000640565b005b3480156200030657600080fd5b50620002f76200031836600462001a96565b6200067f565b3480156200032b57600080fd5b50620002f76200033d36600462001a96565b620006ae565b3480156200035057600080fd5b50620002f76200036236600462001925565b62000734565b3480156200037557600080fd5b506200038062000809565b604051620001f4919062001c09565b620002f7620003a036600462001984565b6200086e565b348015620003b357600080fd5b506200021f620003c536600462001a7d565b62000930565b348015620003d857600080fd5b50620002f7620003ea36600462001b19565b6200095c565b348015620003fd57600080fd5b50620002a1600080516020620038cc83398151915281565b3480156200042257600080fd5b50620004516200043436600462001925565b610101602052600090815260409020805460019091015460ff1682565b60408051928352901515602083015201620001f4565b3480156200047457600080fd5b50620001e86200048636600462001a96565b62000a7c565b3480156200049957600080fd5b50620002f7620004ab36600462001944565b62000aa7565b348015620004be57600080fd5b50620002a1600081565b348015620004d557600080fd5b5060fd546200021f906001600160a01b031681565b348015620004f757600080fd5b50620002f76200050936600462001925565b62000b9e565b620002f76200052036600462001abd565b62000bdd565b3480156200053357600080fd5b506200021f6200054536600462001a4f565b62000d51565b3480156200055857600080fd5b50620002f76200056a36600462001a96565b62000d8b565b3480156200057d57600080fd5b50620002f76200058f36600462001925565b62000db5565b348015620005a257600080fd5b50620002a160fc5481565b348015620005ba57600080fd5b5062000380620005cc36600462001925565b62000df4565b348015620005df57600080fd5b50620002a17f189ab7a9244df0848122154315af71fe140f3db0fe014031783b0946b8c9d2e381565b60006001600160e01b03198216637965db0b60e01b14806200063a57506301ffc9a760e01b6001600160e01b03198316145b92915050565b600080516020620038cc8339815191526200065c813362000e6d565b5060ff80546001600160a01b0319166001600160a01b0392909216919091179055565b6000828152606560205260409020600101546200069d813362000e6d565b620006a9838362000edc565b505050565b6001600160a01b0381163314620007245760405162461bcd60e51b815260206004820152602f60248201527f416363657373436f6e74726f6c3a2063616e206f6e6c792072656e6f756e636560448201526e103937b632b9903337b91039b2b63360891b60648201526084015b60405180910390fd5b62000730828262000f66565b5050565b306001600160a01b037f0000000000000000000000000000000000000000000000000000000000000000161415620007805760405162461bcd60e51b81526004016200071b9062001c8d565b7f00000000000000000000000000000000000000000000000000000000000000006001600160a01b0316620007b462000fd0565b6001600160a01b031614620007dd5760405162461bcd60e51b81526004016200071b9062001cd9565b620007e88162000ffe565b6040805160008082526020820190925262000806918391906200102b565b50565b60606101038054806020026020016040519081016040528092919081815260200182805480156200086457602002820191906000526020600020905b81546001600160a01b0316815260019091019060200180831162000845575b5050505050905090565b306001600160a01b037f0000000000000000000000000000000000000000000000000000000000000000161415620008ba5760405162461bcd60e51b81526004016200071b9062001c8d565b7f00000000000000000000000000000000000000000000000000000000000000006001600160a01b0316620008ee62000fd0565b6001600160a01b031614620009175760405162461bcd60e51b81526004016200071b9062001cd9565b620009228262000ffe565b62000730828260016200102b565b61010381815481106200094257600080fd5b6000918252602090912001546001600160a01b0316905081565b600054610100900460ff168062000976575060005460ff16155b620009955760405162461bcd60e51b81526004016200071b9062001d25565b600054610100900460ff16158015620009b8576000805461ffff19166101011790555b620009c262001180565b620009cc6200120f565b60fc85905560fd80546001600160a01b038087166001600160a01b03199283161790925560fe805486841690831617905560ff80549285169290911691909117905562000a1b60003362001274565b62000a36600080516020620038cc8339815191523362001274565b62000a627f189ab7a9244df0848122154315af71fe140f3db0fe014031783b0946b8c9d2e33362001274565b801562000a75576000805461ff00191690555b5050505050565b60009182526065602090815260408084206001600160a01b0393909316845291905290205460ff1690565b600080516020620038cc83398151915262000ac3813362000e6d565b6001600160a01b03831660009081526101016020526040902061010354158062000b315750836001600160a01b031661010382600001548154811062000b1957634e487b7160e01b600052603260045260246000fd5b6000918252602090912001546001600160a01b031614155b1562000b875761010380548083556001810182556000919091527f02c297ab74aad0aede3a1895c857b1f2c71e6a203feb727bec95ac752998cb780180546001600160a01b0319166001600160a01b0386161790555b600101805460ff1916921515929092179091555050565b600080516020620038cc83398151915262000bba813362000e6d565b5060fd80546001600160a01b0319166001600160a01b0392909216919091179055565b60fc5460fd5460fe5460009287929091879187916001600160a01b0391821691163362000c0962001280565b60ff546040516001600160a01b039091169062000c269062001917565b9889526020890197909752604088019590955260608701939093526001600160a01b039182166080870152811660a086015290811660c085015290811660e08401521661010082015261012001604051809103906000f08015801562000c90573d6000803e3d6000fd5b50336000908152610100602090815260408083208054600180820183559185528385200180546001600160a01b0319166001600160a01b0387169081179091558085526101029093529220805460ff191690921790915590915062000cf6903462001370565b604080518681523360208201526001600160a01b038316818301524260608201526080810184905290517fc9fd97c1118b97a71931dc93489f048cb2e4fb431adac7bce7756f6165eea68a9181900360a00190a15050505050565b610100602052816000526040600020818154811062000d6f57600080fd5b6000918252602090912001546001600160a01b03169150829050565b60008281526065602052604090206001015462000da9813362000e6d565b620006a9838362000f66565b600080516020620038cc83398151915262000dd1813362000e6d565b5060fe80546001600160a01b0319166001600160a01b0392909216919091179055565b6001600160a01b0381166000908152610100602090815260409182902080548351818402810184019094528084526060939283018282801562000e6157602002820191906000526020600020905b81546001600160a01b0316815260019091019060200180831162000e42575b50505050509050919050565b62000e79828262000a7c565b620007305762000e94816001600160a01b031660146200148f565b62000ea18360206200148f565b60405160200162000eb492919062001b90565b60408051601f198184030181529082905262461bcd60e51b82526200071b9160040162001c58565b62000ee8828262000a7c565b620007305760008281526065602090815260408083206001600160a01b03851684529091529020805460ff1916600117905562000f223390565b6001600160a01b0316816001600160a01b0316837f2f8788117e7eff1d82e926ec794901d17c78024a50270940304540a733656f0d60405160405180910390a45050565b62000f72828262000a7c565b15620007305760008281526065602090815260408083206001600160a01b0385168085529252808320805460ff1916905551339285917ff6391f5c32d9c69d2a47ea670b442974b53935d1edc7fd64eb21e047a839171b9190a45050565b7f360894a13ba1a3210667c828492db98dca3e2076cc3735a920a3ca505d382bbc546001600160a01b031690565b7f189ab7a9244df0848122154315af71fe140f3db0fe014031783b0946b8c9d2e362000730813362000e6d565b60006200103762000fd0565b905062001044846200168c565b600083511180620010525750815b15620010665762001064848462001733565b505b7f4910fdfa16fed3260ed0e7147f7cc6da11a60208b5b9406d12a635614ffd9143805460ff1662000a7557805460ff191660011781556040516001600160a01b0383166024820152620010e890869060440160408051601f198184030181529190526020810180516001600160e01b0316631b2ce7f360e11b17905262001733565b50805460ff19168155620010fb62000fd0565b6001600160a01b0316826001600160a01b031614620011755760405162461bcd60e51b815260206004820152602f60248201527f45524331393637557067726164653a207570677261646520627265616b73206660448201526e75727468657220757067726164657360881b60648201526084016200071b565b62000a758562001827565b600054610100900460ff16806200119a575060005460ff16155b620011b95760405162461bcd60e51b81526004016200071b9062001d25565b600054610100900460ff16158015620011dc576000805461ffff19166101011790555b620011e662001869565b620011f062001869565b620011fa62001869565b801562000806576000805461ff001916905550565b600054610100900460ff168062001229575060005460ff16155b620012485760405162461bcd60e51b81526004016200071b9062001d25565b600054610100900460ff16158015620011e6576000805461ffff1916610101179055620011f062001869565b62000730828262000edc565b6000805b61010354811015620013305760fb8054906000620012a28362001dfd565b90915550506101035460fb5410620012ba57600060fb555b610101600061010360fb5481548110620012e457634e487b7160e01b600052603260045260246000fd5b60009182526020808320909101546001600160a01b0316835282019290925260400190206001015460ff16156200131b5762001330565b80620013278162001dfd565b91505062001284565b5061010360fb54815481106200135657634e487b7160e01b600052603260045260246000fd5b6000918252602090912001546001600160a01b0316919050565b80471015620013c25760405162461bcd60e51b815260206004820152601d60248201527f416464726573733a20696e73756666696369656e742062616c616e636500000060448201526064016200071b565b6000826001600160a01b03168260405160006040518083038185875af1925050503d806000811462001411576040519150601f19603f3d011682016040523d82523d6000602084013e62001416565b606091505b5050905080620006a95760405162461bcd60e51b815260206004820152603a60248201527f416464726573733a20756e61626c6520746f2073656e642076616c75652c207260448201527f6563697069656e74206d6179206861766520726576657274656400000000000060648201526084016200071b565b60606000620014a083600262001d8e565b620014ad90600262001d73565b67ffffffffffffffff811115620014d457634e487b7160e01b600052604160045260246000fd5b6040519080825280601f01601f191660200182016040528015620014ff576020820181803683370190505b509050600360fc1b816000815181106200152957634e487b7160e01b600052603260045260246000fd5b60200101906001600160f81b031916908160001a905350600f60fb1b816001815181106200156757634e487b7160e01b600052603260045260246000fd5b60200101906001600160f81b031916908160001a90535060006200158d84600262001d8e565b6200159a90600162001d73565b90505b600181111562001634576f181899199a1a9b1b9c1cb0b131b232b360811b85600f1660108110620015de57634e487b7160e01b600052603260045260246000fd5b1a60f81b8282815181106200160357634e487b7160e01b600052603260045260246000fd5b60200101906001600160f81b031916908160001a90535060049490941c936200162c8162001de3565b90506200159d565b508315620016855760405162461bcd60e51b815260206004820181905260248201527f537472696e67733a20686578206c656e67746820696e73756666696369656e7460448201526064016200071b565b9392505050565b803b620016f25760405162461bcd60e51b815260206004820152602d60248201527f455243313936373a206e657720696d706c656d656e746174696f6e206973206e60448201526c1bdd08184818dbdb9d1c9858dd609a1b60648201526084016200071b565b7f360894a13ba1a3210667c828492db98dca3e2076cc3735a920a3ca505d382bbc80546001600160a01b0319166001600160a01b0392909216919091179055565b6060823b620017945760405162461bcd60e51b815260206004820152602660248201527f416464726573733a2064656c65676174652063616c6c20746f206e6f6e2d636f6044820152651b9d1c9858dd60d21b60648201526084016200071b565b600080846001600160a01b031684604051620017b1919062001b72565b600060405180830381855af49150503d8060008114620017ee576040519150601f19603f3d011682016040523d82523d6000602084013e620017f3565b606091505b50915091506200181e8282604051806060016040528060278152602001620038a560279139620018d9565b95945050505050565b62001832816200168c565b6040516001600160a01b038216907fbc7cd75a20ee27fd9adebab32041f755214dbc6bffa90cc0225b39da2e5c2d3b90600090a250565b600054610100900460ff168062001883575060005460ff16155b620018a25760405162461bcd60e51b81526004016200071b9062001d25565b600054610100900460ff16158015620011fa576000805461ffff1916610101179055801562000806576000805461ff001916905550565b60608315620018ea57508162001685565b825115620018fb5782518084602001fd5b8160405162461bcd60e51b81526004016200071b919062001c58565b611a478062001e5e83390190565b60006020828403121562001937578081fd5b8135620016858162001e47565b6000806040838503121562001957578081fd5b8235620019648162001e47565b91506020830135801515811462001979578182fd5b809150509250929050565b6000806040838503121562001997578182fd5b8235620019a48162001e47565b9150602083013567ffffffffffffffff80821115620019c1578283fd5b818501915085601f830112620019d5578283fd5b813581811115620019ea57620019ea62001e31565b604051601f8201601f19908116603f0116810190838211818310171562001a155762001a1562001e31565b8160405282815288602084870101111562001a2e578586fd5b82602086016020830137856020848301015280955050505050509250929050565b6000806040838503121562001a62578182fd5b823562001a6f8162001e47565b946020939093013593505050565b60006020828403121562001a8f578081fd5b5035919050565b6000806040838503121562001aa9578182fd5b823591506020830135620019798162001e47565b6000806000806080858703121562001ad3578182fd5b5050823594602084013594506040840135936060013592509050565b60006020828403121562001b01578081fd5b81356001600160e01b03198116811462001685578182fd5b6000806000806080858703121562001b2f578384fd5b84359350602085013562001b438162001e47565b9250604085013562001b558162001e47565b9150606085013562001b678162001e47565b939692955090935050565b6000825162001b8681846020870162001db0565b9190910192915050565b7f416363657373436f6e74726f6c3a206163636f756e742000000000000000000081526000835162001bca81601785016020880162001db0565b7001034b99036b4b9b9b4b733903937b6329607d1b601791840191820152835162001bfd81602884016020880162001db0565b01602801949350505050565b6020808252825182820181905260009190848201906040850190845b8181101562001c4c5783516001600160a01b03168352928401929184019160010162001c25565b50909695505050505050565b602081526000825180602084015262001c7981604085016020870162001db0565b601f01601f19169190910160400192915050565b6020808252602c908201527f46756e6374696f6e206d7573742062652063616c6c6564207468726f7567682060408201526b19195b1959d85d1958d85b1b60a21b606082015260800190565b6020808252602c908201527f46756e6374696f6e206d7573742062652063616c6c6564207468726f7567682060408201526b6163746976652070726f787960a01b606082015260800190565b6020808252602e908201527f496e697469616c697a61626c653a20636f6e747261637420697320616c72656160408201526d191e481a5b9a5d1a585b1a5e995960921b606082015260800190565b6000821982111562001d895762001d8962001e1b565b500190565b600081600019048311821515161562001dab5762001dab62001e1b565b500290565b60005b8381101562001dcd57818101518382015260200162001db3565b8381111562001ddd576000848401525b50505050565b60008162001df55762001df562001e1b565b506000190190565b600060001982141562001e145762001e1462001e1b565b5060010190565b634e487b7160e01b600052601160045260246000fd5b634e487b7160e01b600052604160045260246000fd5b6001600160a01b03811681146200080657600080fdfe60c06040523480156200001157600080fd5b5060405162001a4738038062001a47833981016040819052620000349162000106565b6004899055600088905560058790556008869055600180546001600160a01b038088166001600160a01b0319928316179092556002805487841690831617905560038054928616929091169190911790556001600160601b0319606083811b821660805282901b1660a0526040517f1f3edb4d58a0796934b2fca1e84cec8a42269dc76c56c22b4489a77205ed6bcf90620000d2908b815260200190565b60405180910390a15050505050505050506200019c565b80516001600160a01b03811681146200010157600080fd5b919050565b60008060008060008060008060006101208a8c03121562000125578485fd5b8951985060208a0151975060408a0151965060608a015195506200014c60808b01620000e9565b94506200015c60a08b01620000e9565b93506200016c60c08b01620000e9565b92506200017c60e08b01620000e9565b91506200018d6101008b01620000e9565b90509295985092959850929598565b60805160601c60a05160601c61184e620001f9600039600081816103c9015281816114d0015261156c01526000818161045b0152818161061d01528181610bf001528181610cd901528181610f790152611119015261184e6000f3fe6080604052600436106101a05760003560e01c8063a758757d116100ec578063d295ef5c1161008a578063f3d86e4a11610064578063f3d86e4a146105ca578063f409abcb146105e0578063f6faa747146105f5578063fe25e00a1461060b57600080fd5b8063d295ef5c1461057f578063d5c4034e14610594578063ddca3f43146105b457600080fd5b8063b07c7475116100c6578063b07c747514610520578063b3f0067414610535578063be72052414610555578063c72331fe1461056a57600080fd5b8063a758757d146104d6578063a77945b4146104eb578063ae200e791461050057600080fd5b80632eb81e1c116101595780635a9b0b89116101335780635a9b0b8914610420578063897399ae1461048c5780639b732350146104ac5780639b789b7e146104c157600080fd5b80632eb81e1c146103b75780634d547ada146103eb5780635a4777771461040b57600080fd5b8063021a0b7d146102da57806313faede6146103035780631776b75614610319578063200d2ed21461033b57806329dcb0cf146103695780632cba90c71461037f57600080fd5b366102d5576000670de0b6b3a76400006000546005546101c091906117a2565b6101ca9190611782565b9050806005546101da919061176a565b34101561022e5760405162461bcd60e51b815260206004820152601e60248201527f576f726b51756573743a20496e73756666696369656e7420616d6f756e74000060448201526064015b60405180910390fd5b6007805460ff60a01b1916600160a01b17905560055461024f90829061176a565b34111561028457610284816005543461026891906117c1565b61027291906117c1565b6003546001600160a01b03169061063f565b60015461029a906001600160a01b03168261063f565b604080513381523460208201527f88a5966d370b9919b20f3e2c13ff65706f196a4e32cc2c12bf57088f88525874910160405180910390a150005b600080fd5b3480156102e657600080fd5b506102f060095481565b6040519081526020015b60405180910390f35b34801561030f57600080fd5b506102f060055481565b34801561032557600080fd5b5061033961033436600461163b565b61075d565b005b34801561034757600080fd5b5060075461035c90600160a01b900460ff1681565b6040516102fa9190611703565b34801561037557600080fd5b506102f060085481565b34801561038b57600080fd5b5060025461039f906001600160a01b031681565b6040516001600160a01b0390911681526020016102fa565b3480156103c357600080fd5b5061039f7f000000000000000000000000000000000000000000000000000000000000000081565b3480156103f757600080fd5b5060075461039f906001600160a01b031681565b34801561041757600080fd5b50610339610821565b34801561042c57600080fd5b506004546005546006546003546007546008546040516102fa969594936001600160a01b0390811693908116927f000000000000000000000000000000000000000000000000000000000000000092600160a01b90920460ff16916116ae565b34801561049857600080fd5b506103396104a73660046115ed565b6108dc565b3480156104b857600080fd5b50610339610a0a565b3480156104cd57600080fd5b50610339610b2a565b3480156104e257600080fd5b50610339610be5565b3480156104f757600080fd5b50610339610cce565b34801561050c57600080fd5b5060035461039f906001600160a01b031681565b34801561052c57600080fd5b50610339610df5565b34801561054157600080fd5b5060015461039f906001600160a01b031681565b34801561056157600080fd5b50610339610eb0565b34801561057657600080fd5b50610339610f6e565b34801561058b57600080fd5b5061033961104f565b3480156105a057600080fd5b506103396105af36600461165c565b61110e565b3480156105c057600080fd5b506102f060005481565b3480156105d657600080fd5b506102f060065481565b3480156105ec57600080fd5b50610339611262565b34801561060157600080fd5b506102f060045481565b34801561061757600080fd5b5061039f7f000000000000000000000000000000000000000000000000000000000000000081565b8047101561068f5760405162461bcd60e51b815260206004820152601d60248201527f416464726573733a20696e73756666696369656e742062616c616e63650000006044820152606401610225565b6000826001600160a01b03168260405160006040518083038185875af1925050503d80600081146106dc576040519150601f19603f3d011682016040523d82523d6000602084013e6106e1565b606091505b50509050806107585760405162461bcd60e51b815260206004820152603a60248201527f416464726573733a20756e61626c6520746f2073656e642076616c75652c207260448201527f6563697069656e74206d617920686176652072657665727465640000000000006064820152608401610225565b505050565b600160078054600160a01b900460ff169081111561078b57634e487b7160e01b600052602160045260246000fd5b1480156107a257506003546001600160a01b031633145b6040518060600160405280602a81526020016117ef602a9139906107d95760405162461bcd60e51b81526004016102259190611717565b506004829055600581905560408051838152602081018390527f99c1b6b4fbf4ca9b81e8d02685672ce9c005abc4f4cda8dbbdd42b8d7862527c910160405180910390a15050565b6007546001600160a01b0316331480156108665750600360078054600160a01b900460ff169081111561086457634e487b7160e01b600052602160045260246000fd5b145b6040518060600160405280602a81526020016117ef602a91399061089d5760405162461bcd60e51b81526004016102259190611717565b506007805460ff60a01b1916600160a21b1790556040517f09c75d41aa3ec09c07382b19acbb564b6194701c275a1e84c265b13c096bddc690600090a1565b6003546001600160a01b0316331480156109215750600160078054600160a01b900460ff169081111561091f57634e487b7160e01b600052602160045260246000fd5b145b6040518060600160405280602a81526020016117ef602a9139906109585760405162461bcd60e51b81526004016102259190611717565b506001600160a01b0381166109af5760405162461bcd60e51b815260206004820152601a60248201527f576f726b51756573743a20496e76616c696420616464726573730000000000006044820152606401610225565b600780546001600160a01b0383166001600160a81b03199091168117600160a11b179091556040519081527f3c8974307e4abad0239998f9dc76add6b783cd52bf1337e9871763ce00f0e94b9060200160405180910390a150565b6003546001600160a01b031633148015610a4f5750600560078054600160a01b900460ff1690811115610a4d57634e487b7160e01b600052602160045260246000fd5b145b80610ab457506007546001600160a01b031633148015610a9a5750600560078054600160a01b900460ff1690811115610a9857634e487b7160e01b600052602160045260246000fd5b145b8015610ab45750600954610ab1906203f48061176a565b42115b6040518060600160405280602a81526020016117ef602a913990610aeb5760405162461bcd60e51b81526004016102259190611717565b506007805460ff60a01b1916600360a11b1790556040517f131074782b6ce325b67d3adcf196c9460c96c7006cc8b0db5f06168497d6aeea90600090a1565b6007546001600160a01b031633148015610b6f5750600260078054600160a01b900460ff1690811115610b6d57634e487b7160e01b600052602160045260246000fd5b145b6040518060600160405280602a81526020016117ef602a913990610ba65760405162461bcd60e51b81526004016102259190611717565b506007805460ff60a01b1916600360a01b1790556040517fbb4dc7231e372d3045e445d0edfcdbfd6fbabb267fd42c35dbda9e01bd8bc95590600090a1565b336001600160a01b037f000000000000000000000000000000000000000000000000000000000000000016148015610c485750600660078054600160a01b900460ff1690811115610c4657634e487b7160e01b600052602160045260246000fd5b145b6040518060600160405280602a81526020016117ef602a913990610c7f5760405162461bcd60e51b81526004016102259190611717565b50610c8d426203f48061176a565b6008556007805460ff60a01b1916600160a21b1790556040517f449b7a58002dc78283b0936b451b2258380908c80a671d05cbfc6d5d73e7e84890600090a1565b336001600160a01b037f000000000000000000000000000000000000000000000000000000000000000016148015610d315750600660078054600160a01b900460ff1690811115610d2f57634e487b7160e01b600052602160045260246000fd5b145b6040518060600160405280602a81526020016117ef602a913990610d685760405162461bcd60e51b81526004016102259190611717565b506007805460ff60a01b1916600760a01b17905560008054600554670de0b6b3a764000091610d96916117a2565b610da09190611782565b9050610db38160055461027291906117c1565b600154610dc9906001600160a01b03168261063f565b6040517f517141fd66568d7da9d3afa22dbb1526b725c23ac9cf2d87afcdda39f43d244690600090a150565b600160078054600160a01b900460ff1690811115610e2357634e487b7160e01b600052602160045260246000fd5b148015610e3a57506003546001600160a01b031633145b6040518060600160405280602a81526020016117ef602a913990610e715760405162461bcd60e51b81526004016102259190611717565b506007805460ff60a01b1916600760a01b1790556040517f1a7b868a3587950cf797c54b284b8c24e1ed007035e305719a6cbdd34b0ea1a890600090a1565b6007546001600160a01b031633148015610ef55750600260078054600160a01b900460ff1690811115610ef357634e487b7160e01b600052602160045260246000fd5b145b6040518060600160405280602a81526020016117ef602a913990610f2c5760405162461bcd60e51b81526004016102259190611717565b50600780546001600160a81b031916600160a01b1790556040517fbb5ffab343ed4caa081410d144b5a3ce6b60f32914c0ed3630624d09f980adfb90600090a1565b336001600160a01b037f000000000000000000000000000000000000000000000000000000000000000016148015610fd15750600660078054600160a01b900460ff1690811115610fcf57634e487b7160e01b600052602160045260246000fd5b145b6040518060600160405280602a81526020016117ef602a9139906110085760405162461bcd60e51b81526004016102259190611717565b506007805460ff60a01b1916600760a01b179055611024611325565b6040517fd3690046db46e1a0fc4d2e65f824e35d9171c12fd0aabab5d3d76841e1d8b1f790600090a1565b6007546001600160a01b0316331480156110945750600460078054600160a01b900460ff169081111561109257634e487b7160e01b600052602160045260246000fd5b145b6040518060600160405280602a81526020016117ef602a9139906110cb5760405162461bcd60e51b81526004016102259190611717565b506007805460ff60a01b1916600560a01b179055426009556040517f3c350d18e479f5682191b9cdb4cdfa755c912f69d2d5ab94d910df38dec36a7290600090a1565b336001600160a01b037f0000000000000000000000000000000000000000000000000000000000000000161480156111715750600660078054600160a01b900460ff169081111561116f57634e487b7160e01b600052602160045260246000fd5b145b6040518060600160405280602a81526020016117ef602a9139906111a85760405162461bcd60e51b81526004016102259190611717565b506005548111156112165760405162461bcd60e51b815260206004820152603260248201527f576f726b51756573743a20666f7266656974206d757374206265206c65617374604482015271081bdc88195c5d585b081a9bd88818dbdcdd60721b6064820152608401610225565b6007805460ff60a01b1916600760a01b1790556006819055611236611325565b6040517f520a8af2b3599291fb6be141ac83424cf1e51e71ca7fc767716248ae66c6aa5c90600090a150565b6003546001600160a01b0316331480156112a75750600560078054600160a01b900460ff16908111156112a557634e487b7160e01b600052602160045260246000fd5b145b6040518060600160405280602a81526020016117ef602a9139906112de5760405162461bcd60e51b81526004016102259190611717565b506007805460ff60a01b1916600760a01b1790556112fa611325565b6040517ffe17fb508799412c4bf2b124b8292bcc9ca4ff8ab8ec830110fbcb1ae5cb312590600090a1565b600060065460055461133791906117c1565b90506000670de0b6b3a76400006000548361135291906117a2565b61135c9190611782565b600254600754604051631711922960e31b81526001600160a01b03918216600482015292935060009291169063b88c91489060240160206040518083038186803b1580156113a957600080fd5b505afa1580156113bd573d6000803e3d6000fd5b505050506040513d601f19601f820116820180604052508101906113e19190611674565b90506000670de0b6b3a76400006113f883866117a2565b6114029190611782565b905061142e8161141285876117c1565b61141c91906117c1565b6007546001600160a01b03169061063f565b8115611498576002546007546040516373e888fd60e01b81526001600160a01b0391821660048201529116906373e888fd9083906024016000604051808303818588803b15801561147e57600080fd5b505af1158015611492573d6000803e3d6000fd5b50505050505b600654156114bb576006546003546114bb916001600160a01b039091169061063f565b60405163d72733c960e01b81523360048201527f00000000000000000000000000000000000000000000000000000000000000006001600160a01b03169063d72733c99060240160206040518083038186803b15801561151a57600080fd5b505afa15801561152e573d6000803e3d6000fd5b505050506040513d601f19601f82011682018060405250810190611552919061161b565b156115d15760405163d33e81a160e01b81523360048201527f00000000000000000000000000000000000000000000000000000000000000006001600160a01b03169063d33e81a190602401600060405180830381600087803b1580156115b857600080fd5b505af11580156115cc573d6000803e3d6000fd5b505050505b6001546115e7906001600160a01b03168461063f565b50505050565b6000602082840312156115fe578081fd5b81356001600160a01b0381168114611614578182fd5b9392505050565b60006020828403121561162c578081fd5b81518015158114611614578182fd5b6000806040838503121561164d578081fd5b50508035926020909101359150565b60006020828403121561166d578081fd5b5035919050565b600060208284031215611685578081fd5b5051919050565b600881106116aa57634e487b7160e01b600052602160045260246000fd5b9052565b88815260208101889052604081018790526001600160a01b0386811660608301528581166080830152841660a082015261010081016116f060c083018561168c565b8260e08301529998505050505050505050565b60208101611711828461168c565b92915050565b6000602080835283518082850152825b8181101561174357858101830151858201604001528201611727565b818111156117545783604083870101525b50601f01601f1916929092016040019392505050565b6000821982111561177d5761177d6117d8565b500190565b60008261179d57634e487b7160e01b81526012600452602481fd5b500490565b60008160001904831182151516156117bc576117bc6117d8565b500290565b6000828210156117d3576117d36117d8565b500390565b634e487b7160e01b600052601160045260246000fdfe576f726b51756573743a204163636573732064656e696564206f7220696e76616c696420737461747573a2646970667358221220e156e082702f4c60d4d7aa63077e42c98a183016aa27b1adcc1f9f80aef1d27b64736f6c63430008040033416464726573733a206c6f772d6c6576656c2064656c65676174652063616c6c206661696c6564a49807205ce4d355092ef5a8a18f56e8913cf4a201fbe287825b095693c21775a2646970667358221220cec29c610c95ef91fe36256adbbd261b43a2fbcbf9a9f5ec740a4fff2403ad0264736f6c63430008040033",
  "linkReferences": {},
  "deployedLinkReferences": {}
}